:100000000C94941D0C94C51D0C94C51D0C94C51D19
:100010000C94C51D0C94C51D0C94C51D0C94C51DD8
:100020000C94C51D0C94C51D0C94C51D0C94C51DC8
:100030000C94C51D0C94C51D0C94C51D0C94C51DB8
:100040000C94C51D0C94CBB80C94C51D0C94C51D07
:100050000C94C51D0C94C51D0C940DAF0D94A703F5
:100060000C94C51D0C94158F0C940B8F0C94C51D0E
:100070000C94C51D0C94C51D0C94C51D0C94C51D78
:100080000C944F330C94C51D0C94C51D0C94C51DC8
:100090000C94C51D0C94C51D0C94C51D0C94C51D58
:1000A0000C94C51D0C94C51D0C9421330C94C51DD6
:1000B0000C94C51D0C94C51D0C94C51D0C94F332F5
:1000C0000C94C51D0C94C51D0C94C51D0D943F00CA
:1000D0000D9415000C94C51D0C94C51D0C94C51DE4
:1000E0000C94C51D084AD73B3BCE016E84BCBFFDB6
:1000F000C12F3D6C74319ABD56833DDA3D00C77FF8
:1001000011BED9E4BB4C3E916BAAAABE0000008090
:100110003F05A84CCDB2D44EB93836A9020C50B91F
:10012000918688083CA6AAAA2ABE000000803F004B
:100130000D9445010D944D010D94CB010D9480015A
:100140000D94D5010D9452010D945C010D948A011A
:100150000D94AD010D949E010D9466010D94E5166C
:100160000D94B7010D9494010D94C1010D94B42028
:100170000D94DF010D9470010D9478014E414E49AC
:100180004E495459494E46CDCCCC3D0AD7233C1755
:10019000B7D13877CC2B329595E6241FB14F0A00A2
:1001A0000020410000C84200401C4620BCBE4CCA92
:1001B0001B0E5AAEC59D7400407A10F35A00A0720F
:1001C0004E18090010A5D4E80000E8764817000092
:1001D000E40B54020000CA9A3B000000E1F5050060
:1001E0000080969800000040420F000000A08601A9
:1001F000000000102700000000E803000000006479
:1002000000000000000A00000000000100000000E3
:10021000002C76D888DC674F0823DFC1DFAE59E1B8
:10022000B1B796E5E3E453C63AE651997696E8E627
:10023000C28426EB898C9B62ED407C6FFCEFBC9CFA
:100240009F40F2BAA56FA5F490055A2AF75C936B0C
:100250006CF9676DC11BFCE0E40D47FEF520E6B5C7
:1002600000D0ED902E0300943577050080841E08A1
:100270000000204E0A000000C80C333333330F98BF
:100280006E12831141EF8D2114893BE65516CFFE86
:10029000E6DB18D1844B381BF77C1D901DA4BBE412
:1002A00024203284725E228100C9F124ECA1E53D54
:1002B000275A325F535445505F50494E005A325FBF
:1002C000454E41424C455F50494E005A325F4449C9
:1002D000525F50494E005A5F53544F505F50494E41
:1002E000005A5F535445505F50494E005A5F4D4984
:1002F0004E5F50494E005A5F454E41424C455F505B
:10030000494E005A5F4449525F50494E005A5F437C
:10031000535F50494E00595F53544F505F50494E00
:1003200000595F535445505F50494E00595F4D4945
:100330004E5F50494E00595F454E41424C455F501B
:10034000494E00595F4449525F50494E00595F433E
:10035000535F50494E00585F53544F505F50494EC1
:1003600000585F535445505F50494E00585F4D4907
:100370004E5F50494E00585F454E41424C455F50DC
:10038000494E00585F4449525F50494E00585F4300
:10039000535F50494E00535549434944455F5049C6
:1003A0004E0053535F50494E00534552564F335FF2
:1003B00050494E00534552564F325F50494E0053FC
:1003C0004552564F315F50494E00534552564F30BB
:1003D0005F50494E00534453530053445F444554C7
:1003E0004543545F50494E0053434B5F50494E00C4
:1003F00052414D50535F44395F50494E0052414D78
:1004000050535F44385F50494E0052414D50535F46
:100410004431305F50494E004D4F53495F50494E73
:10042000004D4F534645545F445F50494E004D497F
:10043000534F5F50494E004D4158363637355F5364
:10044000535F50494E004C45445F50494E0048456B
:10045000415445525F4245445F50494E0048454132
:100460005445525F305F50494E0046494C5F5255EB
:100470004E4F55545F50494E0046414E315F5049F2
:100480004E0046414E5F50494E0045315F53544542
:10049000505F50494E0045315F454E41424C455FEB
:1004A00050494E0045315F4449525F50494E004526
:1004B000315F43535F50494E0045305F53544550C0
:1004C0005F50494E0045305F454E41424C455F50BC
:1004D000494E0045305F4449525F50494E00453017
:1004E0005F43535F50494E00455F4D5558325F5052
:1004F000494E00455F4D5558315F50494E00455FAC
:100500004D5558305F50494E004245455045525F69
:1005100050494E004156525F53535F50494E00417F
:1005200056525F53434B5F50494E004156525F4D08
:100530004F53495F50494E004156525F4D49534F0A
:100540005F50494E0054454D505F4245445F50490D
:100550004E0054454D505F315F50494E0054454D5B
:10056000505F305F50494E0046494C57494454480B
:100570005F50494E005458440052584400434F4D78
:100580004D554E49434154494F4E004452595255DE
:100590004E004552524F525300494E464F0045437C
:1005A000484F005072696E74205061757365640025
:1005B0004572726F722077726974696E6720746F0A
:1005C00020454550524F4D210A00363726033C3D09
:1005D000380E2E303E1224221E1A1C1808440AFF20
:1005E000430809070001627573793A2070617573D9
:1005F000656420666F7220696E7075740A0062759A
:1006000073793A2070617573656420666F72207526
:100610007365720A00627573793A2070726F636550
:100620007373696E670A007061757365004D3630CB
:1006300030002066696C616D656E745F72756E6FF7
:100640007574200066696C616D656E745F72756E9D
:100650006F757420540046696C616D656E745275D7
:100660006E6F757420540053544F505045442E20E3
:10067000005072696E7465722073746F7070656477
:100680002064756520746F206572726F72732E20FE
:1006900046697820746865206572726F7220616E99
:1006A0006420757365204D39393920746F20726567
:1006B00073746172742E202854656D706572617454
:1006C0007572652069732072657365742E20536599
:1006D0007420697420616674657220726573746138
:1006E0007274696E67290A004E6F20436865636BF8
:1006F00073756D2077697468206C696E65206E75FE
:100700006D6265722C204C617374204C696E653A81
:1007100020004E6F20436865636B73756D207769A9
:100720007468206C696E65206E756D6265722C2030
:100730004C617374204C696E653A20006368656390
:100740006B73756D206D69736D617463682C204CDB
:10075000617374204C696E653A20004C696E6520A7
:100760004E756D626572206973206E6F74204C61E6
:100770007374204C696E65204E756D6265722B3105
:100780002C204C617374204C696E653A20004D3109
:10079000313000776169740A004D313137004D33D3
:1007A000310053442072656164206572726F720A71
:1007B00000446F6E65207072696E74696E672066A2
:1007C000696C650A002121204B494C4C20636175FE
:1007D00073656420627920746F6F206D7563682083
:1007E000696E6163746976652074696D65202D207A
:1007F00063757272656E7420636F6D6D616E643ABD
:10080000200053544F505045442E20005072696EC2
:100810007465722073746F707065642064756520F0
:10082000746F206572726F72732E2046697820741F
:100830006865206572726F7220616E6420757365E1
:10084000204D39393920746F207265737461727468
:100850002E202854656D706572617475726520690B
:10086000732072657365742E20536574206974203B
:1008700061667465722072657374617274696E6703
:10088000290A006563686F3A004572726F723A0018
:1008900042696C696E656172204C6576656C696E43
:1008A0006720477269643A0A0021212053544F504F
:1008B0002063616C6C65642062656361757365209B
:1008C0006F6620424C546F756368206572726F7258
:1008D000202D2072657374617274207769746820AA
:1008E0004D3939390A0021212053544F502063617A
:1008F0006C6C65642062656361757365206F66204A
:10090000424C546F756368206572726F72202D209F
:10091000726573746172742077697468204D393917
:10092000390A005072696E74696E67204F626A6599
:100930006374002553202569002F2F616374696F4C
:100940006E3A00627574746F6E00656E640070724A
:100950006F6D70745F0073686F77004D38373620A5
:10096000526573706F6E64696E672050524F4D50C0
:10097000545F00554E4B4E4F574E205354415445F3
:100980000047434F44455F494E464F004C43445F48
:1009900050415553455F524553554D450046494CCE
:1009A000414D454E545F52554E4F55545F434F4E47
:1009B00054494E55450046494C414D454E545F52B1
:1009C000554E4F55540044697361626C6552756EA3
:1009D0006F7574005075726765204D6F72650050B9
:1009E00061757365640070617573656400486F7448
:1009F000656E6420746F6F20636F6C640A004469D5
:100A0000736D6973730050617573650053656E642F
:100A1000204D31303820746F20726573756D650A12
:100A200000496E736572742066696C616D656E74E1
:100A300020616E642073656E64204D3130380A0089
:100A40005265686561742066696E69736865642EB5
:100A50000052656865617420446F6E650052656878
:100A6000656174696E672E2E2E005265686561742B
:100A7000696E670048656174657254696D656F756C
:100A800074005265686561740048656174657254EC
:100A9000696D656F75740053656E64204D31303833
:100AA00020746F2068656174206E6F7A7A6C650AB5
:100AB000004E6F7A7A6C65205061726B6564004EEF
:100AC0006F7A7A6C65205061726B656400486F7450
:100AD000656E6420746F6F20636F6C640A007265CA
:100AE00073756D656400626567696E004469736162
:100AF000626C6552756E6F75740050757267654DE6
:100B00006F726500506175736564004C6F6164209D
:100B100046696C616D656E74004C6F616420466956
:100B20006C616D656E74205400496E73657274203B
:100B300066696C616D656E7420616E642073656EAC
:100B400064204D3130380A004469736D6973730055
:100B5000526573756D696E670057616974696E6778
:100B600020666F72206865617475702E0A004C658E
:100B70006176696E6720473236003F53706563695E
:100B80006669656420582C5920636F6F7264696EC2
:100B9000617465206F7574206F6620626F756E6476
:100BA000732E0A003F2852296570656174207661B2
:100BB0006C7565206E6F7420706C61757369626C02
:100BC000653B206D757374206265206174206C65CF
:100BD00061737420312E0A003F28522965706561C7
:100BE00074206D7573742062652073706563696627
:100BF000696564207768656E206E6F74207573690F
:100C00006E6720616E204C43442E0A003F5370658E
:100C1000636966696564206E6F7A7A6C65207465B5
:100C20006D7065726174757265206E6F7420706C82
:100C300061757369626C652E0A003F537065636964
:100C4000666965642066696C616D656E74207369A0
:100C50007A65206E6F7420706C61757369626C6563
:100C60002E0A003F5370656369666965642070727F
:100C7000696D65206C656E677468206E6F74207096
:100C80006C61757369626C652E0A003F5072696D04
:100C900065206C656E677468206D7573742062657D
:100CA00020737065636966696564207768656E2086
:100CB0006E6F74207573696E6720616E204C4344BB
:100CC0002E0A003F537065636966696564206E6F24
:100CD0007A7A6C652073697A65206E6F7420706C07
:100CE00061757369626C652E0A003F5265747261AA
:100CF0006374696F6E204D756C7469706C69657290
:100D0000206D757374206265207370656369666910
:100D100065642E0A003F53706563696669656420E7
:100D200052657472616374696F6E204D756C74697D
:100D3000706C696572206E6F7420706C6175736978
:100D4000626C652E0A003F5370656369666965646D
:100D5000206C6179657220686569676874206E6FC0
:100D60007420706C61757369626C652E0A0043298A
:100D70002E0A003F53706563696669656420626589
:100D8000642074656D7065726174757265206E6F34
:100D90007420706C61757369626C65202834302D25
:100DA00000473236207374617274696E672E2E2E7E
:100DB0000A004F46460A0046616465204865696737
:100DC00068742000426564204C6576656C696E67C6
:100DD00020004661696C656420746F20656E6162F5
:100DE0006C6520426564204C6576656C696E670AA7
:100DF00000496E76616C6964206D6573682E0A0027
:100E000050726F62696E6720506F696E740025536F
:100E10002025692F2569002E0A002F0050726F626D
:100E2000696E67206D65736820706F696E7420004D
:100E3000202844525952554E2900473239204175D5
:100E4000746F20426564204C6576656C696E67003E
:100E50003F20284C2C522C462C4229206F757420A0
:100E60006F6620626F756E64732E0A003F285629E4
:100E70006572626F7365206C6576656C20696D7054
:100E80006C61757369626C652028302D34292E0AD7
:100E900000426164205A2076616C75650A004E6FCD
:100EA0002062696C696E65617220677269640A000C
:100EB000473238205A0041636375726163793A2082
:100EC0000020697465726174696F6E73206F6620AB
:100ED0000044696420004733342061626F72746596
:100EE000642E0A00546172676574206163637572D1
:100EF0006163792061636869657665642E0A0044E0
:100F0000656372656173696E6720616363757261A1
:100F100063792064657465637465642E0A000A440D
:100F20004946464552454E4345205A312D5A323D99
:100F30000050726F62696E67206661696C65642E2D
:100F40000A000A495445524154494F4E3A20003F45
:100F50002841296D706C696669636174696F6E20E0
:100F60006F7574206F6620626F756E647320283011
:100F70002E352D322E30292E0A003F285429617239
:100F8000676574206163637572616379206F75743E
:100F9000206F6620626F756E64732028302E3031AA
:100FA0002D312E30292E0A003F284929746572619F
:100FB00074696F6E206F7574206F6620626F756E36
:100FC00064732028312D3330292E0A003F285929F7
:100FD000206F7574206F6620626F756E64732E0AC1
:100FE000003F285829206F7574206F6620626F7546
:100FF0006E64732E0A003F285329205A2D50726FB9
:101000006265506F736974696F6E20696E6465788C
:1010100020696E76616C69642E0A003F285329208E
:1010200069732072657175697265642E0A004D34AA
:1010300032322053005374616E64617264204465DF
:1010400076696174696F6E3A20002052616E67653F
:101050003A2000204D61783A2000204D696E3A20F8
:10106000004D65616E3A200046696E69736865647B
:10107000210A002072616E67653A2000206D617858
:101080003A2000206D696E3A2000207369676D6117
:101090003A2000206D65616E3A20003A207A3A20AD
:1010A00000206F662000476F696E6720746F3A20DA
:1010B000580043570A00206469723A0020616E6745
:1010C0006C653A005374617274207261646975735F
:1010D0003A00506F736974696F6E696E6720746847
:1010E000652070726F62652E2E2E0A003F4E756D60
:1010F000626572206F66206C65677320696E206D73
:101100006F76656D656E74206E6F7420706C61759E
:101110007369626C652028302D3135292E0A003F15
:101120002028582C5929206F7574206F6620626F13
:10113000756E64732E0A003F53616D706C65207389
:10114000697A65206E6F7420706C61757369626C6A
:10115000652028342D3530292E0A004D3438205A88
:101160002D50726F626520526570656174616269AD
:101170006C69747920546573740A003F2856296598
:1011800072626F7365206C6576656C20696D706C3A
:1011900061757369626C652028302D34292E0A0030
:1011A000205400205200416363656C65726174696C
:1011B0006F6E3A20500050574D3A2020253464007D
:1011C00050574D3A20202534640050574D3A202086
:1011D0002534640050574D3A202025346400505780
:1011E0004D3A20202534640050574D3A20202534B4
:1011F000640050574D3A20202534640050574D3A32
:1012000020202534640050574D3A202025346400B6
:1012100050574D3A20202534640050574D3A202035
:101220002534640050574D3A20202534640050572F
:101230004D3A20202534640050574D3A2020253463
:10124000640050574D3A20202534640050574D3AE1
:101250002020253464003A200020202020434F4DD8
:10126000002020206E6F6E2D7374616E6461726455
:101270002050574D206D6F646500202020636F6DF6
:101280007061726520696E74657272757074206524
:101290006E61626C6564002020206F766572666CFA
:1012A0006F7720696E7465727275707420656E61F7
:1012B000626C6564003A20002020202054494D5380
:1012C0004B00423A2000202020205443435200414A
:1012D0003A20002020202054434352002020202088
:1012E00043533A20002020202057474D3A200050F9
:1012F000574D3A20202534640050574D3A20202580
:1013000034640047004800000088008A008C00B365
:1013100000B400000098009A009C00A800AA00AC4D
:101320000028012A012C012020202054494D45523B
:1013300000440045006E00800081006F00B000B1E5
:10134000007000900091007100A000A100720020C8
:10135000012101730020697320616C736F2074692F
:10136000656420746F20746869732070696E00541E
:10137000494D45523143000A202E002020002020F4
:10138000506F72743A200020202000202020416EEF
:10139000616C6F6720696E203D2025356C64003CD0
:1013A000756E757365642F756E6B6E6F776E3E002C
:1013B000202841253264292020002533642000257F
:1013C0007350494E3A20004F7574707574203D205B
:1013D00000496E70757420203D2000416E616C6F75
:1013E0006720696E203D2025356C640070726F7433
:1013F000656374656420002028412532642920201B
:10140000002533642000257350494E3A20007905A9
:1014100000017505010168053B005D0543005205AB
:10142000450045054400380532012B0533011F05F1
:1014300034011405350109052501FE042801F304D2
:101440002A01E8042C01DE042A01D3041C01C5048E
:101450001801B9041A01AF042C01A4042201960456
:101460001E018A04240182040901790407016A0427
:1014700002015D040A014E04080146040D0137040F
:1014800042012E04320121040701180433010A0429
:101490000A01FD030801F0030901E8033401DA033E
:1014A0003101D5033501CA030B01BF030601B403A3
:1014B0000501A9030401A203350196030C018D0364
:1014C000350183033701760326016C0303016103B1
:1014D0003601560303014D03310143033D01360339
:1014E00038012C030E0121033C0116030E010D03EC
:1014F000280103033001F6023E01EC021201E10271
:101500002E01D6021201CB022201BD021E01B10240
:101510002401446F6E652E0A0066616C7365004697
:1015200041494C3A204E6F2074726967676572209A
:1015300064657465637465640A004641494C3A20E9
:101540004E6F697365206465746563746564202DEE
:1015500020706C656173652072652D72756E2074E4
:101560006573740A002064657465637465642E0A8B
:10157000003D20424C546F756368207072652056A0
:10158000332E3120286F7220636F6D706174696231
:101590006C6529003D205A20536572766F20507289
:1015A0006F6265003D20424C546F7563682056336E
:1015B0002E310020282B2F2D20346D73293A200046
:1015C0003A2033306D73206F72206D6F72650A00A0
:1015D0002E2050756C7365207769647468002A2A20
:1015E00020506C656173652074726967676572204D
:1015F00070726F62652077697468696E203330207D
:10160000736563202A2A0A004641494C3A20424C1D
:10161000544F55434820656E61626C6564202D20EF
:1016200053657420757020746869732064657669E9
:101630006365206173206120536572766F2050725C
:101640006F6265207769746820494E564552544947
:101650004E472073657420746F2027747275652758
:101660002E0A0020204445504C4F594544207374A5
:101670006174653A204C4F5720286C6F676963206E
:1016800030290020204445504C4F59454420737464
:101690006174653A204849474820286C6F67696340
:1016A000203129003D204D656368616E6963616C7E
:1016B0002053776974636820646574656374656436
:1016C0000A005741524E494E473A20494E5645521C
:1016D00054494E472073657474696E672070726F49
:1016E0006261626C79206261636B77617264732EF0
:1016F0000A002E204465706C6F7920262073746F69
:101700007720342074696D65730A003D20424C5483
:101710006F75636820436C617373696320312E3287
:101720002C20312E332C20536D61727420312E30D9
:101730002C20322E302C20322E322C20332E302CE6
:1017400020332E312064657465637465642E0A004D
:101750002E20436865636B20666F7220424C544FA5
:101760005543480A002E205A5F4D494E5F454E446E
:1017700053544F505F494E56455254494E473A20B4
:10178000002E2050726F6265205A5F4D494E5F50A7
:10179000494E3A20002C2073746F7720616E676C7D
:1017A000653A202020002C206465706C6F792061E0
:1017B0006E676C653A2000536572766F2070726FA9
:1017C000626520746573740A2E207573696E6720D4
:1017D000696E6465783A2020004D34332057616982
:1017E000742043616C6C6564004D3433205761692B
:1017F000742043616C6C6564005761746368696E42
:10180000672070696E730A0064697300656E006119
:10181000626C65640A00656E6473746F70206D6F2E
:101820006E69746F72200020580020204D61783A54
:101830002000200020204D696E3A2000536F66740E
:1018400020656E6473746F70733A200047323800FD
:1018500020496E76616C6964206578747275646580
:1018600072200047322F473320626164207061721A
:10187000616D65746572730A00536C6565702E2E18
:101880002E005A2050726F6265205061737420429E
:1018900065640A005A2050726F626520506173744B
:1018A0002042656400486F6D652058592066697252
:1018B00073740A00486F6D65205859204669727329
:1018C00074004D3131372050726F62652066616956
:1018D0006C65642E0A4732380A0070726F62655F69
:1018E000726577697065004469736D697373004749
:1018F0003239205265747279696E670050726F6276
:10190000696E67204661696C6564004D313137202E
:10191000426564206C6576656C696E6720666169F6
:101920006C65642E0A4730205A31300A4D3330300E
:101930002050323520533838300A4D333030205063
:1019400035302053300A4D3330302050323520535B
:101950003838300A4D333030205035302053300A7B
:101960004D3330302050323520533838300A4D3323
:101970003030205035302053300A47342053310066
:1019800070726F62655F6661696C6564004D3131CC
:101990003720426564206C6576656C696E672064EB
:1019A0006F6E652E00205A3A200020593A200042DE
:1019B000656420583A20004D65736820706F696E29
:1019C000742063616E6E6F74206265207265736F40
:1019D0006C7665640A00436F6E74696E7565004DC0
:1019E000302F3120427265616B2043616C6C6564FD
:1019F00000436C69636B20746F20526573756D656D
:101A00002E2E2E004E6F204D6F76652E00456E6493
:101A10002066696C65206C6973740A0042656769A9
:101A20006E2066696C65206C6973740A0044697382
:101A30006D69737300526573756D696E67205344E9
:101A400000286E6F2066696C6529004375727265A7
:101A50006E742066696C653A20002E0A0044656C3D
:101A60006574696F6E206661696C65642C204669D7
:101A70006C653A200046696C652064656C65746528
:101A8000643A005072696E742074696D653A200082
:101A90000A53746174733A2046696C616D656E74A3
:101AA00020757365643A20002C204C6F6E67657357
:101AB00074206A6F623A2000546F74616C207469FC
:101AC0006D653A200053746174733A20002C2046EF
:101AD00061696C65643A20002C2046696E69736800
:101AE00065643A20005072696E74733A2000537432
:101AF0006174733A2000436F6F6C696E672E2E2EEF
:101B00000048656174696E672E2E2E0045202553AE
:101B1000006F6B006F6666009E05990592058B0548
:101B20007D0544454255473A004D3131332053003D
:101B300042656420436F6F6C696E672E2E2E0042E3
:101B400065642048656174696E672E2E2E004348D7
:101B5000414D4245525F54454D50455241545552B6
:101B600045004D4F54494F4E5F4D4F44455300542F
:101B70004845524D414C5F50524F54454354494F94
:101B80004E004155544F5245504F52545F53445F9D
:101B90005354415455530050524F4D50545F535578
:101BA00050504F525400454D455247454E43595FA2
:101BB00050415253455200434153455F4C494748B9
:101BC000545F4252494748544E45535300544F477F
:101BD000474C455F4C494748545300534F46545770
:101BE0004152455F504F574552004255494C445F62
:101BF00050455243454E54004C4556454C494E477E
:101C00005F44415441005A5F50524F424500415594
:101C1000544F4C4556454C005052494E545F4A4F24
:101C2000420050524F4752455353004155544F5272
:101C300045504F52545F54454D5000564F4C554DF2
:101C4000455452494300454550524F4D0042494E7C
:101C50004152595F46494C455F5452414E534645A7
:101C6000520053455249414C5F584F4E5F584F46C2
:101C700046004649524D574152455F4E414D453A07
:101C80004D61726C696E20322E305F44573520549E
:101C90004D33442053534D44424220534F555243F9
:101CA000455F434F44455F55524C3A6874747073B6
:101CB0003A2F2F6769746875622E636F6D2F496EB6
:101CC00073616E6974794175746F6D6174696F6E5B
:101CD0002F4D61726C696E2F747265652F4372654A
:101CE000616C6974794477696E5F322E302050528E
:101CF0004F544F434F4C5F56455253494F4E3A3124
:101D00002E30204D414348494E455F545950453A85
:101D1000544D3344203130532050726F2045585475
:101D200052554445525F434F554E543A3120555514
:101D300049443A63656465326132662D34316132FB
:101D40002D343734382D396231322D6335356336D1
:101D5000326633363766660A002F2F20003F4A204E
:101D60006F7574206F662072616E67652028302E53
:101D7000303120746F20302E33290A0020466C6FDA
:101D8000773A200050726F746563746564205069FF
:101D90006E0A003A200020536572766F2000206F93
:101DA0007574206F662072616E67650A00536572F4
:101DB000766F200020643A0020693A0020703A00D3
:101DC000496E76616C6964206578747275646572B9
:101DD0000A0020643A0020693A0020703A006469E1
:101DE0007300656E0043290A0061626C65642028F7
:101DF0006D696E2074656D702000436F6C642065A2
:101E0000787472756465732061726520004F464670
:101E1000004F4E0046696C616D656E742072756E80
:101E20006F75742064697374616E636520286D6DCD
:101E3000293A200046696C616D656E742072756E7A
:101E40006F757420004D65736820706F696E742023
:101E500063616E6E6F74206265207265736F6C765D
:101E600065640A004D34323120696E636F727265A9
:101E7000637420706172616D657465722075736141
:101E800067650A004F666673657473204170706CF5
:101E9000696564004572723A20546F6F2066617202
:101EA0002100546F6F206661722066726F6D207220
:101EB00065666572656E636520706F696E740A0091
:101EC000454550524F4D204F4B0A00446966663AD3
:101ED000200046726F6D5374703A005374657070D1
:101EE00065723A00556E4C6576656C3A004C6576C5
:101EF000656C65643A005261773A20202020000A20
:101F00004C6F676963616C3A00436F756E7420456E
:101F10003A004361703A0050726F6265204F666606
:101F2000736574205A0050726F6265204F66667345
:101F300065745A3A2000290A0020746F20003F5A25
:101F4000206F7574206F662072616E6765202800AF
:101F5000290A0020746F20003F59206F7574206F8C
:101F6000662072616E676520282D00290A002074A2
:101F70006F20003F58206F7574206F662072616E6D
:101F8000676520282D0050726F6265204F6666736A
:101F90006574205800220A00656E71756575656963
:101FA0006E672022002042002050006F6B005265B7
:101FB00073656E643A200043616E6E6F74206F70BB
:101FC000656E20737562646972200025697300254F
:101FD000696D20256973002569682025696D2025B4
:101FE000697300256964202569682025696D2025AD
:101FF0006973002569792025696420256968202591
:10200000696D202569730023646566696E652044E7
:10201000454641554C545F00626564004B642000A6
:102020004B6920004B702000504944204175746F6B
:1020300074756E652066696E6973686564212050E9
:10204000757420746865206C617374204B702C204B
:102050004B6920616E64204B6420636F6E73746102
:102060006E74732066726F6D2062656C6F77206985
:102070006E746F20436F6E66696775726174696F05
:102080006E2E680A00504944204175746F74756E55
:1020900065206661696C6564212074696D656F7582
:1020A000740A00546865726D616C2052756E6177B8
:1020B00061790048656174696E67206661696C6565
:1020C0006400504944204175746F74756E652066D4
:1020D00061696C6564212054656D70657261747509
:1020E000726520746F6F20686967680A00204B640E
:1020F0003A2000204B693A2000204B703A20000A19
:1021000020436C617373696320504944200A0020A6
:102110004B643A2000204B693A2000204B703A2053
:10212000000A204E6F206F76657273686F6F740AB5
:10213000002054753A2000204B753A2000206D6134
:10214000783A2000206D696E3A200020643A200021
:1021500020626961733A2000504944204175746FD0
:1021600074756E652073746172740A00504944205E
:102170004175746F74756E65206661696C65642164
:102180002054656D706572617475726520746F6F2F
:1021900020686967680A00504944204175746F746B
:1021A000756E65206661696C6564212042616420FA
:1021B0006578747275646572206E756D6265720AF9
:1021C000004D323520500A4D323400526573756D22
:1021D00065005549205061757365004E6F204D6153
:1021E000746368203A004D333033452D3153363512
:1021F000433455004D3939390A4D32383050305357
:10220000313630004D3530320A4D353030004D33E7
:102210003033453053323135433855000A202A2AAD
:102220002A7265636461742E646174615B305D2041
:102230003D004732380A4731204631303030205A8D
:10224000313000556E737570706F72746564204F15
:102250007074696F6E2053656C65637465640047C4
:10226000323652323535004D3139305335350A4723
:1022700032380A4732390A4D3430300A4D31303461
:10228000533231350A4732380A4D31303953323101
:10229000350A4D34323053310A47315831303059D4
:1022A00031303046353030300A47315A300A4D35FA
:1022B00030300A4D31313720536574205A204F6633
:1022C00066736574004731204631303030205A3013
:1022D0002E30004732380A47312046313030302026
:1022E0005A302E30004D353030005A204F6666731C
:1022F0006574203A202573004D353030005A204F48
:102300006666736574203A202573004732380A47A1
:102310003146313530305A302E30004732385A0A83
:10232000473146313530305A302E30004D38340088
:10233000473146313030305A302E30004732380A7B
:10234000473146313030305A302E30005A204F66F7
:1023500066736574203A202573004D353030005384
:10236000746F702054726967676572656400537496
:102370006F70204E6F004D383400426567696E53B0
:102380007769746368007265636461742E61646464
:1023900072203D3D007265636461742E64617461F6
:1023A0005B305D203D3D0077616974776179203D48
:1023B0003D000A202A2A2A4E6F7A7A6C6554656D90
:1023C000705374617475735B325D203D00544D33FE
:1023D00044203130532050726F2052656164792E51
:1023E000005072696E74696E672E2E2E0063616EE6
:1023F00063656C005072696E742041626F7274651F
:1024000064004469736D6973730055492041626FBC
:102410007274656400726573756D650000809D431C
:1024200000009B430000C8430000000000000000C3
:1024300000000000290A002062797465733B206364
:102440007263200053657474696E67732053746FF0
:10245000726564202800454550524F4D20646174D8
:102460006173697A65206572726F722E0A00290A9B
:10247000002062797465733B2063726320002073CF
:10248000746F7265642073657474696E677320720B
:102490006574726965766564202800202863616C24
:1024A00063756C6174656429210A0020213D200058
:1024B000454550524F4D20435243206D69736D6125
:1024C000746368202D202873746F7265642920005E
:1024D0002053697A653A2000496E6465783A200095
:1024E000204D61726C696E3D563734290A004545AE
:1024F00050524F4D2076657273696F6E206D69730F
:102500006D617463682028454550524F4D3D000A67
:1025100020696E6974207A70726F62655F7A6F6687
:1025200066736574203D2000454550524F4D20494B
:102530006E697469616C697A65640A0048617264E5
:10254000636F6465642044656661756C74205365CF
:102550007474696E6773204C6F616465640A00006F
:1025600000FA430000FA430000204100008C4200C2
:1025700000A0420000A0420000C84300000C43EE4F
:10258000020000EE020000640000003C0000003A7F
:102590000A0020204D363033200020440020204DFA
:1025A00034313220530046696C616D656E7420725F
:1025B000756E6F75742073656E736F723A0A0020C2
:1025C00055004C0046696C616D656E74206C6F61DE
:1025D000642F756E6C6F6164206C656E67746873D0
:1025E0003A0A0020204D3835312058005A2D5072BB
:1025F0006F6265204F666673657400204400204951
:102600000020204D33303420500020440020490069
:1026100020204D33303120500050494420736574E0
:1026200074696E67733A0A00204A002020473239E5
:10263000205720490020204D34323020530041756E
:10264000746F20426564204C6576656C696E673AEC
:102650000A0020204D323036205800486F6D65202A
:102660006F66667365743A0A00204A0020540020A1
:10267000530020204D323035204200204A3C6A75FC
:102680006E635F6465763E00416476616E63656487
:102690003A20423C6D696E5F7365676D656E745F6D
:1026A00074696D655F75733E20533C6D696E5F663E
:1026B000656564726174653E20543C6D696E5F743B
:1026C000726176656C5F66656564726174653E0013
:1026D00020540020520020204D3230342050004140
:1026E0006363656C65726174696F6E2028756E69CD
:1026F00074732F7332293A20503C7072696E745F84
:10270000616363656C3E20523C72657472616374F0
:102710005F616363656C3E20543C74726176656CE6
:102720005F616363656C3E0A0020204D32303120CA
:1027300058004D6178696D756D20416363656C6506
:10274000726174696F6E2028756E6974732F7332AD
:10275000293A0A0020204D3230332058004D61784C
:10276000696D756D20666565647261746573202896
:10277000756E6974732F73293A0A00537465707308
:102780002070657220756E69743A0A0020204D32FF
:1027900030302044300A0020204D323030204400B8
:1027A0002044697361626C65640A0046696C616DFE
:1027B000656E742073657474696E67733A002028BF
:1027C0006D6D29002020473231202020203B2055EC
:1027D0006E69747320696E206D6D00486F6D696E4F
:1027E00067204661696C6564006F70656E005452C5
:1027F00049474745524544003A200066696C616D7F
:10280000656E74007A5F6D696E00795F6D696E0048
:10281000785F6D696E005265706F7274696E6720C3
:10282000656E6473746F70207374617475730A00DD
:10283000205A3A0020593A0020436F756E74205890
:102840003A0020453A00205A3A0020593A00583AB6
:102850000020746F6F206C6F6E67206578747275DE
:1028600073696F6E2070726576656E7465640A00B8
:1028700020636F6C6420657874727573696F6E2065
:1028800070726576656E7465640A00000000000071
:102890000000000000000000004842000048420024
:1028A0000080405761726E696E673A20486F6D69AB
:1028B0006E672042756D702044697669736F72206F
:1028C0003C20310A000202040000A0400000A040A9
:1028D0000000004000809D4300009B430000C8436F
:1028E000FFFFFF0000000100000001000080005514
:1028F0005555000000400033333300AAAA2A00498E
:1029000092240000002000C7711C0099991900D181
:10291000451700555515003BB1130024491200110D
:10292000111100000010000F0F0F00E3380E0043DC
:10293000790D00CCCC0C00C3300C00E8A20B006475
:10294000210B00AAAA0A00703D0A009DD809004286
:102950007B090092240900DCD30800888808001055
:1029600042080000000800F0C107008787070075D3
:10297000500700711C07003EEB0600A1BC06006971
:1029800090060066660600703E0600611806001795
:10299000F4050074D105005BB00500B2900500623B
:1029A0007205005555050078390500B81E0500056B
:1029B0000505004EEC040087D40400A1BD0400907E
:1029C000A7040049920400C17D0400EE690400C719
:1029D000560400444404005C320400082104004111
:1029E000100400000004003FF00300F8E00300269C
:1029F000D20300C3C30300CCB503003AA803000A06
:102A00009B0300388E0300C08103009F750300D034
:102A1000690300505E03001D530300344803009116
:102A20003D03003333030016290300381F030097CA
:102A3000150300300C0300030303000BFA020049E6
:102A4000F10200BAE802005CE002002DD802002D7D
:102A5000D0020059C80200B0C0020031B90200DA49
:102A6000B10200AAAA0200A0A30200BC9C0200FAC4
:102A70009502005C8F0200DF88020082820200451E
:102A80007C02002776020027700200436A02007C65
:102A9000640200D05E02003F590200C8530200FFEA
:102AA000FDFCFAF8F6F4F2F0EEECEAE9E7E5E3E132
:102AB000E0DEDCDAD9D7D5D4D2D0CFCDCBCAC8C7E7
:102AC000C5C3C2C0BFBDBCBAB9B7B6B4B3B2B0AF6C
:102AD000ADACAAA9A8A6A5A4A2A1A09E9D9C9A99C6
:102AE000989795949392908F8E8D8B8A89888786FC
:102AF00084838281807F7E7D7B7A79787776757416
:102B0000737271706F6E6D6C6B6A6968676665640D
:102B1000636261605F5E5D5C5B5A595858575655F9
:102B20005453525150504F4E4D4C4B4A4A494847CE
:102B30004646454443424241403F3E3E3D3C3B3B8E
:102B40003A39383837363535343332323130302F40
:102B50002E2E2D2C2B2B2A292928272726252524E4
:102B6000232322212120201F1E1E1D1C1C1B1B1A7B
:102B70001919181817161615151413131212111106
:102B8000100F0F0E0E0D0D0C0C0B0A0A0909080888
:102B900007070606050504040303020201000024DA
:102BA000F4D43050C38E20C2A24017828B70111211
:102BB0007A910D816CD90AA861E108C7586607614E
:102BC0005143061E4B5D05C145A7041A4111040976
:102BD0003D9803713931034036DB0265339102D4ED
:102BE000305402802E1D02632CEE01752AC501B0FF
:102BF00028A001102781018F2564012B244B01E0BF
:102C0000223401AC211F018D200D01801FFC0084A6
:102C10001EED00971DDF00B81CD200E61BC6002089
:102C20001BBC00641AB200B219A8000A19A0006AFD
:102C3000189900D117910040178B00B51684003108
:102C4000167E00B31579003A157300C7146F00584B
:102C5000146A00EE1366008813630025135E00C734
:102C6000125B006C12570015125400C11151007014
:102C7000114F0021114B00D61049008D104700461E
:102C800010440002104200C00F4000800F3E00427E
:102C90000F3C00060F3B00CB0E3800930E37005C54
:102CA0000E3500270E3400F30D3200C10D310090B7
:102CB0000D3000600D2E00320D2D00050D2C00D9B9
:102CC0000C2B00AE0C2900850C29005C0C2700356C
:102CD0000C27000E0C2600E80B2400C40B2400A0D7
:102CE0000B23007D0B23005A0B2100390B21001808
:102CF0000B2000F80A1F00D90A1E00BB0A1E009D07
:102D00000A1D00800A1D00630A1C00470A1B002CD4
:102D10000A1B00110A1A00F7091A00DD091900C47C
:102D2000091900AB091900920917007B0918006303
:102D30000917004C09160036091600200916000A6A
:102D4000091500F5081500E0081400CC081400B8B7
:102D5000081400A4081400900813007D0812006BEA
:102D60000813005808120046081200340811002306
:102D70000811001208110001081100F0071000E00E
:102D8000071000D0071000C0071000B0070F00A107
:102D900007100091070E0083070F0074070F0065EE
:102DA000070E0057070E0049070E003B070D002EC7
:102DB000070E0020070D0013070D0006070D00F990
:102DC000060C00ED060D00E0060C00D4060C00C851
:102DD000060C00BC060C00B0060C00A4060B009903
:102DE000060C008D060B0082060B0077060B006CAC
:102DF000060B0061060A0057060B004C060A00424B
:102E0000060A0038060A002E060A0024060A001ADE
:102E1000060A001006090007060A00FD050900F46D
:102E2000050900EB050900E2050900D9050900D0F4
:102E3000050900C7050900BE050900B5050800AD74
:102E4000050800A50509009C050800940508008CEC
:102E5000050800840508007C050800740508006C5E
:102E6000050700650508005D050700560508004ECA
:102E70000507004705070040050800380507003131
:102E80000507002A050700230507001C0506001694
:102E90000507000F0507000805060002050700FBEF
:102EA000040600F5040700EE040600E8040600E24C
:102EB000040700DB040600D5040600CF040600C9A1
:102EC000040600C3040600BD040600B7040600B1F2
:102ED000040500AC040600A6040600A00405009B3F
:102EE00004060095040500900406008A0405008588
:102EF000040500800406007A0405007504050070CE
:102F00000405006B04050066040500610405005C0F
:102F100004050057040500520405004D040500484F
:102F2000040500430405003E0404003A040500358E
:102F3000040500300404002C0405002704040023C9
:102F40000405001E0404001A040400160405001100
:102F50000404000D04040009040500040404000036
:102F6000040400FC030400F8030400F4030400F06C
:102F7000030400EC030400E8030400E4030400E09D
:102F8000030400DC030400D8030400D4030400D0CD
:102F9000030400CC030400C8030300C5030300249A
:102FA000F404D9201BC40C5C0E9804C4095F0265AC
:102FB000077101F405F900FB04B30048048700C160
:102FC0000369005803550003034500BE023A00841C
:102FD00002310053022A002902250004022000E4E5
:102FE000011C00C8011900AF0117009801140084EA
:102FF000011300710110006101100051010E004326
:10300000010D0036010B002B010B0020010B0015F8
:103010000109000C01090003010800FB000800F38E
:10302000000800EB000700E4000600DE000600D800
:10303000000600D2000600CC000500C7000500C253
:10304000000500BD000400B9000400B5000400B193
:10305000000400AD000400A9000400A5000300A2C4
:103060000003009F0004009B0003009800030095EC
:1030700000020093000300900003008D0002008B0B
:103080000003008800020086000200840003008123
:103090000002007F0002007D0002007B0002007938
:1030A0000002007700010076000200740002007246
:1030B000000100710002006F0002006D0001006C51
:1030C0000002006A0001006900020067000100665A
:1030D000000100650001006400020062000100615F
:1030E000000100600001005F0002005D0001005C63
:1030F0000001005B0001005A000100590001005866
:103100000001005700010056000100550001005465
:103110000001005300000053000100520001005163
:10312000000100500001004F0001004E0000004E61
:103130000001004D0001004C0001004B0000004B5D
:103140000001004A00010049000100480000004859
:103150000001004700010046000000460001004554
:10316000000000450001004400010043000000434E
:103170000001004200000042000100410000004147
:10318000000100400001003F0000003F0001003E40
:103190000000003E0001003D0000003D0001003C39
:1031A0000000003C0000003C0001003B0000003B30
:1031B0000001003A0000003A000100390000003927
:1031C000000100380000003800000038000100371E
:1031D0000000003700010036000000360000003615
:1031E000000100350000003500000035000100340A
:1031F0000000003400000034000100330000003300
:1032000000000033000100320000003200000032F4
:1032100000010031000000310000003100010030E9
:1032200000000030000000300001002F0000002FDF
:103230000000002F0000002F0001002E0000002ED3
:103240000000002E0001002D0000002D0000002DC8
:103250000000002D0001002C0000002C0000002CBC
:103260000000002C0001002B0000002B0000002BB0
:103270000000002B0001002A0000002A0000002AA4
:103280000000002A00010029000000290000002998
:10329000000000290000002900010028000000288B
:1032A000000000280000002800000028000100277E
:1032B0000000002700000027000000270000002772
:1032C0000001002600000026000000260000002665
:1032D0000000002600010025000000250000002558
:1032E000000000250000002500000025000100244A
:1032F000000000240000002400000024000000243E
:103300000001002300000023000000230000002330
:103310000000002300000023000000230001002221
:103320000000002200000022000000220000002215
:103330000000002200010021000000210000002107
:1033400000000021000000210000002100000021F9
:1033500000010020000000200000002000000020EC
:1033600000000020000000200000002000000020DD
:103370000001001F0000001F0000001F0000001FD0
:103380000000001F0000001F0000001F0001001EC1
:103390000000001E0000001E0000001E000000399A
:1033A0003000003325000087190000B00F0000DB5B
:1033B000080000BD040000740200003F010000424C
:1033C000656400453100626564002C207379737474
:1033D000656D2073746F7070656421204865617439
:1033E00065725F49443A200048656174696E6720E0
:1033F0006661696C656400546865726D616C205229
:10340000756E617761790048656174696E67204601
:1034100061696C65640048656174696E6720666106
:10342000696C656400546865726D616C2052756EDC
:1034300061776179001000C90210012C014001225E
:103440000170011801B0010E01F00104015002FAEF
:1034500000B002F0003003E600D003DC009004D29C
:10346000007005C800A006BE000008B400B009AA9C
:1034700000D00BA000600E960060118C0000158239
:103480000020197800C01D6E00A0226400B0275AE9
:1034900000902C500000314600E0343C00103832DF
:1034A00000903A2800603C1E00A03D1400803E0AB7
:1034B00000203F0000544845524D414C2052554E8B
:1034C0004157415900546865726D616C2052756EA8
:1034D00061776179004572723A204D415854454DEB
:1034E00050004D415854454D5020747269676765CE
:1034F000726564004572723A204D494E54454D50F4
:10350000004D494E54454D5020747269676765728D
:103510006564000A0A0020205A5F4D494E3A002097
:1035200020595F4D494E3A002020585F4D494E3A90
:10353000004D383420582059205A204500202F00B3
:103540002042403A0020403A0020573A0020573AA3
:1035500000496E76616C6964206578747275646583
:10356000720A0070012C0190012701B0012201C0F4
:10357000011D01F00118011002130130020E01605B
:1035800002090190020401C002FF000003FA00409A
:1035900003F5008003F000D003EB002004E6007088
:1035A00004E100E004DC004005D700C005D2004083
:1035B00006CD00D006C8008007C3003008BE00F06A
:1035C00008B900C009B400B00AAF00B00BAA00D01F
:1035D0000CA500000EA000500F9B00C010960050DC
:1035E00012910000148C00C0158700B0178200B043
:1035F000197D00D01B7800001E730040206E0090E3
:10360000226900F024640040275F0090295A00E0FE
:103610002B5500102E500020304B0010324600E099
:1036200033410090353C001037370070383200A02D
:10363000392D00B03A2800A03B2300603C1E00104A
:103640003D1900903D1400103E0F00703E0A00C06E
:103650003E0500003F0000403FFBFF803FF6FFC0FB
:103660003FF1FF7C3C3E5E2B3D3F2F5B5D3B2C2AB8
:10367000225C0043616E6E6F74206F70656E207304
:103680007562646972200053442063617264206F24
:103690006B0A006F70656E526F6F74206661696CA3
:1036A00065640A00766F6C756D652E696E697420AD
:1036B0006661696C65640A00534420696E69742010
:1036C0006661696C0A004D3234004D323320257337
:1036D0000046696C652073656C65637465640A00F7
:1036E0002053697A653A200046696C65206F7065E1
:1036F0006E65643A2000454E4420535542524F5562
:1037000054494E450A002220706F730022207061D8
:1037100072656E743A2200535542524F5554494EC9
:10372000452043414C4C207461726765743A220015
:10373000747279696E6720746F2063616C6C20739A
:1037400075622D67636F64652066696C65732077A9
:1037500069746820746F6F206D616E79206C657676
:10376000656C732E204D4158206C6576656C206920
:10377000733A310A002E0A006F70656E2066616927
:103780006C65642C2046696C653A20005772697438
:10379000696E6720746F2066696C653A2000534437
:1037A000207072696E74696E67206279746520009A
:1037B0004E6F74205344207072696E74696E670A8C
:1037C00000667265736800646F696E6700206669E1
:1037D0006C653A20004E6F77200000002100240025
:1037E00027002A002D0030003300010100000401F1
:1037F00007010A0100002200250028002B002E00EE
:103800003100340002010000050108010B01000035
:1038100020002300260029002C002F003200000188
:103820000000030106010901050505050705080853
:103830000808020202020A0A08080404040401013A
:10384000010101010101030303030303030304074F
:1038500007070C0C0C0C0C0C0C0C020202020606E6
:103860000606060606060B0B0B0B0B0B0B0B0102D9
:103870001020200808102040102040800201020182
:10388000080402010102040810204080804020103A
:103890000804020180040201804020100804020193
:1038A00008040201010204081020408001020408FB
:1038B0001020408000000A0B02090C0D0E080703BF
:1038C00004010000000000000000000000000000F3
:1038D00000000000000000000000000000000000E8
:1038E00012111000000000000000000000000000A5
:1038F000000000000000000000002020506C616EFD
:103900006E657242756666657242797465733A20B7
:10391000002046726565204D656D6F72793A200012
:10392000436F6D70696C65643A204A616E20203681
:1039300020323032300A00204C617374205570649C
:10394000617465643A20323031392D31302D32378F
:10395000207C20417574686F723A2054696E794DED
:10396000616368696E657333440A00322E305F44C8
:1039700057350A004D61726C696E0020536F667492
:10398000776172652052657365740A00205761740F
:103990006368646F672052657365740A0020427221
:1039A0006F776E206F75742052657365740A0020FE
:1039B00045787465726E616C2052657365740A0097
:1039C000506F77657255700A0073746172740A00E3
:1039D0006175746F25632E6700473238585900654A
:1039E00072726F722077726974696E6720746F20CB
:1039F00066696C650A00446F6E6520736176696E56
:103A0000672066696C652E0A004D323900205A3AEB
:103A10000020593A0020583A00656E6473746F7044
:103A200073206869743A200050726F62696E672073
:103A30004661696C65640A0050726F62696E672046
:103A40004661696C656400205A3A200020593A208A
:103A50000042656420583A2000486F6D6520257348
:103A60002573257320466972737400220A00556E0F
:103A70006B6E6F776E20636F6D6D616E643A20229E
:103A80000020746F6F206C6F6E672065787472759C
:103A900073696F6E2070726576656E7465640A0076
:103AA00020636F6C6420657874727573696F6E2023
:103AB00070726576656E7465640A00204500205A50
:103AC00000205900204D39322058002E0A006F7016
:103AD000656E206661696C65642C2046696C653A88
:103AE00020006E6F74696669636174696F6E20008F
:103AF000706F7765726F6666004B494C4C45442E7B
:103B00002000005072696E7465722068616C746583
:103B1000642E206B696C6C28292063616C6C656471
:103B2000210A0000AE00B60011241FBECFEFD1E283
:103B3000DEBFCDBF00E00CBF18E0A0E0B2E0EAE5D8
:103B4000F0E602E00BBF02C007900D92A233B1076E
:103B5000D9F72EE1A2E3B8E001C01D92A931B20766
:103B6000E1F71DE1C3E9DDE100E006C021970109AD
:103B7000802FFE010F946E2FC239D10780E0080715
:103B8000A9F70F94E8170D941C300C940000809155
:103B90005C1990915D19891B8F7069F480916A0D91
:103BA000811109C081E02091E70B3091E80B232BB4
:103BB00019F480E0089581E008959091E60BE92FD3
:103BC000F0E0EC5BF54E80839F5F943040F490937F
:103BD000E60B80916A0D8F5F80936A0D08951092B5
:103BE000E60BF7CF282F90914F09833021F495FDF4
:103BF0000FC094FD0FC0892F90E0B0E0A0E004C09A
:103C0000B695A795979587952A95D2F781700895CF
:103C100081E0089580E00895082E000C990BFC01C6
:103C2000E85DF74CE491EE2391F0F0E0EE0FFF1F1A
:103C3000E25FF74CA591B4912C918259974CFC010D
:103C40008491282381E090E021F480E0089580E0D1
:103C500090E00895082E000C990BFC01E85DF74CEC
:103C6000E491F0E0EE0FFF1FE652F84CA591B491FD
:103C70002C918259974CFC018491822391E009F4A4
:103C800090E0892F0895CF92DF92EF92FF92CF9329
:103C9000DF93EC016A017B0127E137EB41ED58EB43
:103CA000CB01B6010F94942E87FD23C023E030E0B2
:103CB0004BE953E4C701B6010F94E6251816CCF082
:103CC000C880D980EA80FB8027E137EB41ED58EBD3
:103CD000C701B6010F94942E87FD0BC0C1E023E00D
:103CE00030E84DE953E4C701B6010F94E6251816F4
:103CF0000CF4C0E08C2FDF91CF91FF90EF90DF901C
:103D0000CF9008958F929F92AF92BF92CF92DF9201
:103D1000EF92FF92C090220AD090230AE090240AEA
:103D2000F090250A20E030E0A901C701B6010F9408
:103D3000E6258823E1F1A701960160E070E080E8C4
:103D40009FE30F944A2D6B017C018090260A90908E
:103D5000270AA090280AB090290A20E030E0A901A3
:103D6000C501B4010F94E625882329F1A50194012A
:103D700060E070E080E89FE30F944A2DC092F40861
:103D8000D092F508E092F608F092F7086093F808F0
:103D90007093F9088093FA089093FB08FF90EF90D6
:103DA000DF90CF90BF90AF909F908F900895C12CDF
:103DB000D12C7601CACF60E070E0CB01DFCF8F92CB
:103DC0009F92AF92BF92CF92DF92EF92FF920F93AA
:103DD0001F93CF93DF93CDB7DEB760970FB6F894FC
:103DE000DEBF0FBECDBF8B0140E050E068E472E45F
:103DF00049875A876B877C8740E050E060EA70E42F
:103E00004D875E876F87788B813009F1823009F4A6
:103E10004CC080905F1390906013A0906113B0909D
:103E20006213F801C084D184E284F3849601A7016F
:103E3000B401C5010F94E62587FD02C06401750138
:103E4000C601D70189839A83AB83BC8351C0BE016D
:103E5000635F7F4FC80108960E94B3CF88E0F801E6
:103E6000DE01119601900D928A95E1F7AE01475F50
:103E70005F4FBE016B5F7F4FCE0101960E9492CFD4
:103E80000E940EDD60960FB6F894DEBF0FBECDBF68
:103E9000DF91CF911F910F91FF90EF90DF90CF9026
:103EA000BF90AF909F908F900895F8012085318545
:103EB0004285538560915F13709160138091611307
:103EC000909162130F946E2C6B017C0120E030E026
:103ED00048EC53E40F94E62587FD06C0C12CD12C95
:103EE00088ECE82E83E4F82EC982DA82EB82FC8229
:103EF000BE01635F7F4FCE010196AECFE8E7FAE0E7
:103F0000108211821282138214820D9440022F9229
:103F10003F924F925F926F927F928F929F92AF9259
:103F2000BF92CF92DF92EF92FF920F931F93CF93A6
:103F3000DF93D62FC72FFC0180809180A280B380B1
:103F4000C501B40120E831E541E050E00F94102CA8
:103F5000C9016DE671E00F94472F6B017C01C5012B
:103F6000B40120E13EE040E050E00F94102CCA0183
:103F7000B90128E130E040E050E00F94102C362EDB
:103F8000272E062F172F8CE3482E512C612C712CD5
:103F9000C501B401A30192010F94102CB62EA72ED7
:103FA000CA01B901A30192010F94102CCB01C114D5
:103FB000D10479F1AF92BF927F936F932F923F928A
:103FC000FF92EF92DF92CF9283EF9FE19F938F93C7
:103FD000CF93DF930F947F258DB79EB70E960FB6C4
:103FE000F8949EBF0FBE8DBF8D2F9C2FDF91CF9178
:103FF0001F910F91FF90EF90DF90CF90BF90AF9007
:104000009F908F907F906F905F904F903F902F90F8
:104010000895E114F104C9F0AF92BF927F936F93BA
:104020002F923F92FF92EF9283EE9FE19F938F93A7
:10403000CF93DF930F947F25EDB7FEB73C960FB675
:10404000F894FEBF0FBEEDBFCFCF012BB9F0AF92FA
:10405000BF927F936F932F923F9287ED9FE19F9343
:104060008F93CF93DF930F947F258DB79EB70A96DA
:104070000FB6F8949EBF0FBE8DBFB6CF892BA9F0A7
:10408000AF92BF927F936F938FEC9FE19F938F933B
:10409000CF93DF930F947F25EDB7FEB738960FB619
:1040A000F894FEBF0FBEEDBF9FCFAF92BF928BECD7
:1040B0009FE19F938F93CF93DF930F947F250F9072
:1040C0000F900F900F900F900F908ECF4F925F92A6
:1040D0006F927F928F929F92AF92BF92CF92DF9218
:1040E000EF92FF920F931F93CF93DF9300D01F9215
:1040F000CDB7DEB72B013C0184E0489F600111245D
:10410000F601E95AFC4E80809180A280B3808091B4
:10411000400281115BC020E030E04AE754E4C50171
:10412000B4010F946D2C7B018C0120E030E04AE754
:1041300054E4C501B4010F946E2C4B015C0197014E
:10414000A801B201C3010F94E62587FD0CC09401BC
:10415000A501B201C3010F94942E720183011816B8
:1041600014F474018501F601E95AFC4EC701D80127
:1041700080839183A283B383F601EA54FD4F20E04C
:1041800030E040E752E460817181828193810F9435
:104190004A2D69837A838B839C83CE0101960E948A
:1041A000B9CE0F900F900F900F90DF91CF911F918C
:1041B0000F91FF90EF90DF90CF90BF90AF909F90C6
:1041C0008F907F906F905F904F900895413099F05D
:1041D000423011F1E0902802F090290200912A0269
:1041E00010912B028090340290903502A0903602FC
:1041F000B0903702A4CFE0902C02F0902D020091F5
:104200002E0210912F028090380290903902A090D7
:104210003A02B0903B0293CFE0903002F09031022E
:10422000009132021091330280903C0290903D0246
:10423000A0903E02B0903F0282CFEF92FF920F9388
:104240001F93CF93DF93CDB7DEB78C01EDB6FEB6EB
:104250000F94352501962DB73EB7281B390B0FB6A5
:10426000F8943EBF0FBE2DBF8DB79EB70196B80123
:104270000F942E250E9419FD0FB6F894FEBE0FBEB6
:10428000EDBEDF91CF911F910F91FF90EF900895B8
:104290008C38910514F08CE890E090932914809369
:1042A00028140C9444AFFF920F931F93CF93DF9386
:1042B0001F92CDB7DEB7F82E0AEC15E041E050E0D2
:1042C000B801CE0101960F941A2589818F1108C07B
:1042D00081E00F90DF91CF911F910F91FF90089592
:1042E0000F5F1F4F85E0063E180741F780E0F1CFD2
:1042F00063E00C9496FD2F923F924F925F926F92E3
:104300007F928F929F92AF92BF92CF92DF92EF9265
:10431000FF920F931F93CF93DF93CDB7DEB76097D4
:104320000FB6F894DEBF0FBECDBF8B876C87042F0E
:10433000122F282F30E03E872D87462F50E05A87D6
:10434000498785E0982E929EC001939E900D11247E
:10435000988B8F87FA01E80FF91FEE0FFF1FEE0F02
:10436000FF1FE454FC4E60817181828193819B0127
:10437000AC010F941C2F882309F445C14B85400FD5
:104380006C85610F949EC0011124E985FA85E80FC0
:10439000F91FEE0FFF1FEE0FFF1FE454FC4EC0800D
:1043A000D180E280F380040F909EA0011124E98562
:1043B000FA85E40FF51FEE0FFF1FEE0FFF1FE45409
:1043C000FC4E0081918082807380262F30E0EF8543
:1043D000F889E20FF31FEE0FFF1FEE0FFF1FE454EB
:1043E000FC4E20807181798372817A8373817B8313
:1043F000610F70E0EF85F889E60FF71FEE0FFF1FE2
:10440000EE0FFF1FE454FC4EF88BEF87F081FC8326
:10441000EF85F889F181FD83EF85F889F281FE83CC
:10442000EF85F889F381FF83FC01E20FF31FEE0FA4
:10443000FF1FEE0FFF1FE454FC4E20812887A18050
:10444000B2806380FA01E60FF71FEE0FFF1FEE0F39
:10445000FF1FE454FC4E4080518032801381202F96
:10446000392D482D572D602F792D882D972D0F949C
:104470001C2F882321F000E0912C812C712C9601B7
:10448000A701B601C7010F941C2F882321F0C02E6D
:10449000D92CE82CF72C2C813D814E815F816C81D9
:1044A0007D818E819F810F941C2F882321F01C8297
:1044B0001D821E821F82222D39814A815B81622DDD
:1044C00079818A819B810F941C2F882339F02C805D
:1044D0003D8139834E814A835F815B839201432D05
:1044E000512FB201832D912F0F941C2F882321F07F
:1044F000412C512C312C10E028853A2D4B2D562D76
:1045000068857A2D8B2D962D0F941C2F882321F0F2
:104510004886A52CB32C612E85E02D853E85829F93
:10452000F001839FF00D112449855A85E40FF51F92
:10453000EE0FFF1FEE0FFF1FE454FC4EFA87E987D2
:104540009601A701B601C7010F946E2C202F392DBB
:10455000482D572D0F946D2C6B017C01222D398134
:104560004A815B81622D79818A819B810F946E2CB7
:104570002C813D814E815F810F946D2C9B01AC019C
:10458000C701B6010F946E2C6B017C0128853A2D72
:104590004B2D562D68857A2D8B2D962D0F946E2CD4
:1045A0009201432D512F0F946D2C9B01AC01C7013B
:1045B000B6010F946E2C20E030E040E450E40F94FC
:1045C0004A2DE985FA8560837183828393836C85A4
:1045D0008B8560960FB6F894DEBF0FBECDBFDF911E
:1045E000CF911F910F91FF90EF90DF90CF90BF90F0
:1045F000AF909F908F907F906F905F904F903F9083
:104600002F900C94A5EC60960FB6F894DEBF0FBE09
:10461000CDBFDF91CF911F910F91FF90EF90DF9071
:10462000CF90BF90AF909F908F907F906F905F9052
:104630004F903F902F900895CF92DF92EF92FF928C
:104640000F931F93CF93DF936B017A01EC01CC5B47
:10465000D74F28813CE0389F8001399F100D1124ED
:1046600027FF24C0FB011182108288818F5F88831D
:1046700088819801280F311D87FD3A95C901209145
:104680005519F6012817190629F024F088818C3075
:104690000CF43CC080819181049680349C4908F4DC
:1046A00075C0F60180819181049672C0888198015D
:1046B000280F311D87FD3A95C901209155192817FA
:1046C000190699F294F28881A801480F511D87FDBF
:1046D0005A95FA01EE0FFF1FE40FF51FE751F74E51
:1046E000808187FFC2CF8881F801E80FF11D87FD27
:1046F000FA95CF01EE0FFF1FE80FF91FE751F74EB4
:10470000808160E08F770F949E00AFCF8081918190
:104710002881A801420F511D27FD5A959A01FA01DF
:10472000EE0FFF1FE20FF31FE751F74E2181328199
:10473000820F931FF7019183808388819801280F4E
:10474000311D87FD3A95F901EE0FFF1FE20FF31FB0
:10475000E751F74E808187FF20C08881080F111D27
:1047600087FD1A95F801EE0FFF1FE00FF11FE751CB
:10477000F74E808161E08F77DF91CF911F910F918C
:10478000FF90EF90DF90CF900D949E0080E49CE925
:10479000F701918380838FEF8883DF91CF911F9101
:1047A0000F91FF90EF90DF90CF900895809139099D
:1047B00090913A09009731F04AE050E070E060E0F3
:1047C0000D94122460E070E0CB010895CF92DF9247
:1047D000EF92FF926B017C01463011F51092730A43
:1047E0001092740A1092750A1092760A1092770A43
:1047F0000E9444AF20E030E0A901C701B6010F9448
:10480000E62587FF1BC0C12CD12C7601C701B6015C
:104810000F94A02ECB01FF90EF90DF90CF9038CD7A
:104820006DDB20E030E0A901C701B6010F94E62559
:1048300087FF15C0C12CD12C76011BC020E030E0D1
:104840004CE053E4C701B6010F94942E1816F4F609
:10485000C12CD12C9CE0E92E93E4F92ED7CF20E097
:1048600030E046E953E4C701B6010F94942E1816C0
:104870005CF0C701B6010F94A02ECB01FF90EF9022
:10488000DF90CF900C94C8C4C12CD12C86E9E82EBF
:1048900083E4F82EEECF8091390990913A09009780
:1048A00031F04AE050E070E060E00D94E52260E015
:1048B00070E0CB010895EFDF97FD0AC0ECDF6F3F9A
:1048C00071058105910509F02CF4E5DF862F089527
:1048D00080E008958FEF08958091390990913A0909
:1048E000892B39F0E8DF91E0811101C090E0892F38
:1048F000089591E0FCCFCFDFCB0108952F923F9236
:104900004F925F926F927F928F929F92AF92BF92DF
:10491000CF92DF92EF92FF920F931F93CF93DF938B
:1049200000D0CDB7DEB78090571390905813A09069
:104930005913B0905A1340905B1350905C136090E1
:104940005D1370905E13C0905F13D0906013E09081
:104950006113F09062130E94D8C40E9496C708E2C7
:1049600014E288E292E09B838A838CE1282E84E221
:10497000382E198289810E9490CAF80185919591FB
:10498000A591B491EA81FB8181939193A193B19315
:10499000FB83EA83F10185919591A591B491EA8118
:1049A000FB8180879187A287B387F981FF5FF983B5
:1049B0000C5F1F4F84E0280E311CF330D9F6609154
:1049C0001E0A70911F0A8091200A9091210A0E946C
:1049D000A3ED98D90E9426C5A501940160915713B3
:1049E000709158138091591390915A130F94E625A2
:1049F00081111CC0A301920160915B1370915C1343
:104A000080915D1390915E130F94E62581110EC085
:104A100020915F13309160134091611350916213A4
:104A2000C701B6010F94E6258823B9F00F900F90C7
:104A30000F90DF91CF911F910F91FF90EF90DF903A
:104A4000CF90BF90AF909F908F907F906F905F902E
:104A50004F903F902F900C940EDD0F900F900F9081
:104A6000DF91CF911F910F91FF90EF90DF90CF904A
:104A7000BF90AF909F908F907F906F905F904F907E
:104A80003F902F9008950F931F938091610A81307A
:104A900019F50F9434020091530A1091540A209191
:104AA000550A3091560A601B710B820B930B28EE4E
:104AB00033E040E050E00F94102C6091570A709161
:104AC000580A8091590A90915A0A620F731F841FE5
:104AD000951F1F910F91089560915D0A70915E0A74
:104AE00080915F0A9091600AD6CF1092610A10926D
:104AF000530A1092540A1092550A1092560A1092B4
:104B00005D0A10925E0A10925F0A1092600A10927B
:104B1000570A1092580A1092590A10925A0A089588
:104B2000CF92DF92EF92FF92CF93DF936B017C01E4
:104B3000C42F20E030E0A9010F94E62520E030E00A
:104B4000A90187FD14C020E030E048EC52E4C70121
:104B5000B6010F94942E24E630E040E050E01816A1
:104B600034F0C701B6010F94B22D9B01AC01C230E5
:104B7000A0F4D0E0C054D24FAFEFB0E00F944E2C71
:104B800024E630E040E050E00F94322C2F3F310516
:104B900019F010F02FEF30E02883DF91CF91FF90D4
:104BA000EF90DF90CF9008958091090180FD06C0BD
:104BB0008091521A83FB882780F9089580E0089538
:104BC0009091B017977081E0973009F080E00895D8
:104BD000AF92BF92CF92DF92EF92FF920F931F930B
:104BE000CF93DF93EC01C12C80E3D82EE12CF12C84
:104BF00002E8A12C90E2B92E15E00093DD19C092D5
:104C0000DE19D092DF19E092E019F092E119B0922A
:104C1000E719A092E6191093DA190E94FDE98FEFC7
:104C2000C81AD80AE80AF80A88E2C81680E3D80643
:104C3000E104F10411F740E050E360E070E0CE01E0
:104C4000DF91CF911F910F91FF90EF90DF90CF9068
:104C5000BF90AF900C94B6EA4F925F926F927F92A2
:104C60008F929F92AF92BF92CF92DF92EF92FF927C
:104C70000F931F93CF931092F5091092F4092FE32D
:104C800020936D0910926C0910926B0910926E09B5
:104C900010926F0910927009109271099C01F9012C
:104CA00090812F5F3F4F9032D1F39E34C9F48181C0
:104CB00090ED980F9A3020F08D3211F08B3281F404
:104CC00032969F012F5F3F4F808180538A3008F4D6
:104CD00062C09F012F5F3F4F8081803209F45DC029
:104CE000F093A70DE093A60D8F010F5F1F4FC081BA
:104CF0006AE270E0C8010F94B22F009731F0FC0116
:104D0000319780818032E1F31182CD3429F00CF0AB
:104D100046C0C73409F049C0F80180810F5F1F4FBA
:104D20008032D1F380538A3008F03FC0C0936D09C0
:104D300090E080E0AAE0AF014F5F5F4F2081022E3C
:104D4000000C330B20533109A89FB001A99F700DAF
:104D50001124C901860F971FFA01208120532A30A0
:104D600050F390936C0980936B09DF0131962C917D
:104D70002032D9F3CD3499F58E31910539F02CF5E7
:104D80008731910519F08C31910549F5B093F509FA
:104D9000A093F4090AC0F90194CFF9019ACFCF3456
:104DA00009F4BACFC43509F4B7CFCF911F910F9151
:104DB000FF90EF90DF90CF90BF90AF909F908F903B
:104DC0007F906F905F904F900895853791053CF0EC
:104DD00087379105DCF2803A23E09207B9F210910F
:104DE000A60DC12CD12C760150E040E0812C912CF5
:104DF0005401839401C0DF01FD0131962C912223DF
:104E000009F481C02132E1F4CD34D1F4803291052E
:104E1000B9F4C0926E09D0926F09E0927009F092D5
:104E20007109F093F509E093F40963E270E0CF01B2
:104E30000F94B22F009709F4B8CFDC011C92B5CFC4
:104E400021542A3108F05AC0DF013D91303291F0EF
:104E500060ED630F6A30E8F03E3271F43181305317
:104E60003A30B8F04115510519F4AF0141505109DC
:104E700030E013C0FD01E8CF3D3211F03B3291F735
:104E8000318160ED630F6A3020F03E3259F7328194
:104E9000E6CF3E2F311B309759F3622F70E024018B
:104EA000350104C0440C551C661C771C2A95D2F7AA
:104EB000C428D528E628F7286F5A764FDB013C93A3
:104EC000208121542A3108F496CFDF01FD012D9174
:104ED000222309F490CF30ED320F3A30B8F333ED9E
:104EE000320F323098F32B3289F39F012F5F3F4FFF
:104EF0006081603209F07FCFF901F7CF411551058C
:104F0000F9F6AD01DDCF5093F5094093F409C09255
:104F10006E09D0926F09E0927009F092710945CF45
:104F20004F925F926F927F928F929F92AF92BF92B9
:104F3000CF92DF92EF92FF92CF93DF9300D000D019
:104F40001F921F92CDB7DEB79E838D83DB01CD907C
:104F5000DD90ED90FC908091910D9091920DA0913B
:104F6000930DB091940D89839A83AB83BC839C018C
:104F7000AD01C701B6010F946D2C2B013C01AD8131
:104F8000BE818D909D90AD90BC9080918D0D909143
:104F90008E0DA0918F0DB091900D8D839E83AF8368
:104FA000B88727E137EB41ED58EBC301B2010F940D
:104FB000942E87FDD2C023E030E04BE953E4C301D7
:104FC000B2010F94E62518160CF4C7C02D813E815E
:104FD0004F815885C501B4010F946D2C2B013C0104
:104FE00027E137EB41ED58EB0F94942E87FDB5C0C8
:104FF00023E030E84DE953E4C301B2010F94E62504
:1050000018160CF4AAC020E030E0A9016D817E8161
:105010008F8198850F946E2C2B013C0120E030E0AD
:1050200040E251E40F94E62587FF06C0412C512C45
:1050300030E2632E31E4732E27E137EB41ED58E384
:10504000C301B2010F946D2C9B01AC01C501B401E9
:105050000F94942E87FD81C020E030E84DE953E4A1
:105060006D817E818F8198850F946E2C2B013C0180
:1050700020E030E848E953E40F94942E18163CF4ED
:10508000412C20E8522E28E9622E23E4722E27E1DB
:1050900037EB41ED58E3C301B2010F946E2C9B0135
:1050A000AC01C501B4010F94E62518160CF455C0E7
:1050B00020E030E0A90169817A818B819C810F9485
:1050C0006E2C4B015C0120E030E040E751E40F948E
:1050D000E62587FF06C0812C912C90E7A92E91E44C
:1050E000B92E27E137EB41ED58E3C501B4010F9428
:1050F0006D2C9B01AC01C701B6010F94942E87FD66
:105100002CC020E030E04BE953E469817A818B8147
:105110009C810F946E2C4B015C0120E030E041E952
:1051200053E40F94942E181634F4812C912C81E9B9
:10513000A82E83E4B82E27E137EB41ED58E3C501F3
:10514000B4010F946E2C9B01AC0191E09983C701CF
:10515000B6010F94E62518160CF419828981289659
:105160000FB6F894DEBF0FBECDBFDF91CF91FF9099
:10517000EF90DF90CF90BF90AF909F908F907F90F7
:105180006F905F904F9008952F923F924F925F9251
:105190006F927F928F929F92AF92BF92CF92DF9247
:1051A000EF92FF921F93CF93DF9300D01F92CDB762
:1051B000DEB74A011901FC01408051806280738092
:1051C000FB01C080D180E280F380209157133091A1
:1051D00058134091591350915A13C301B2010F94BF
:1051E000E62581110EC011E0A701960160915B13C5
:1051F00070915C1380915D1390915E130F94E6257E
:10520000811110E080E1E7E5F3E1A0E7BDE0019066
:105210000D928A95E1F7F40180809180A280B3809D
:1052200020910A0230910B0240910C0250910D0224
:10523000C501B4010F94E625882379F18092780D99
:105240009092790DA0927A0DB0927B0D80920A0215
:1052500090920B02A0920C02B0920D0220E030E07E
:1052600040E05FE36091A0137091A1138091A213BD
:105270009091A3130F944B2669837A838B839C832D
:10528000CE0101960E9453CE80E1E7E5F3E1A0E76D
:10529000BDE001900D928A95E1F74092700D509219
:1052A000710D6092720D7092730DC092740DD09258
:1052B000750DE092760DF092770DF101208131812C
:1052C0004281538160917C0D70917D0D80917E0DA6
:1052D00090917F0D0F946E2C60937C0D70937D0DDB
:1052E00080937E0D90937F0D60E070E080EA91E402
:1052F000112371F02AEF3EE74AE25FE36091A413C5
:105300007091A5138091A6139091A7130F944B262B
:1053100069837A838B839C83CE0101960E9453CE4E
:1053200080E1E7E5F3E1A0E7BDE001900D928A9509
:10533000E1F70F900F900F900F90DF91CF911F9199
:10534000FF90EF90DF90CF90BF90AF909F908F90A5
:105350007F906F905F904F903F902F9008950F93A4
:105360001F93CF93DF9300D000D01F921F92CDB731
:10537000DEB78C010E94BDFF1D821E821F8218862F
:1053800020E030E040E05FE360915F1370916013D4
:1053900080916113909162130F946E2C69837A83CC
:1053A0008B839C839E012B5F3F4FAE014F5F5F4F0E
:1053B0006BE573E187E593E1E7DE1D821E821F82C4
:1053C000188620E030E040E05FE3F80160857185F9
:1053D000828593850F946E2C69837A838B839C835B
:1053E000B8016C5F7F4F9E012B5F3F4FAE014F5F57
:1053F0005F4FC801C9DE28960FB6F894DEBF0FBE16
:10540000CDBFDF91CF911F910F9108952F923F92C1
:105410004F925F926F927F928F929F92AF92BF92C4
:10542000CF92DF92EF92FF920F931F93CF93DF9370
:10543000CDB7DEB7A0970FB6F894DEBF0FBECDBFD5
:105440008C011B01409057135090581360905913D2
:1054500070905A1380905B1390905C13A0905D1332
:10546000B0905E13DC018D919D910D90BC91A02DAB
:105470008D879E87AF87B88B9C01AD01C301B201B8
:105480000F946D2C6B017C01D80114968D919D9128
:105490000D90BC91A02D898B9A8BAB8BBC8B9C0102
:1054A000AD01C501B4010F946D2C6D8B7E8B8F8B7C
:1054B000988FD1018D919D910D90BC91A02D8D83E0
:1054C0009E83AF83B8879C01AD01C301B2010F94E5
:1054D0006D2C698F7A8F8B8F9C8FD10114968D9153
:1054E0009D910D90BC91A02D89879A87AB87BC8731
:1054F0009C01AD01C501B4010F946D2C6D8F7E8FA1
:105500008F8F98A3A7019601C701B6010F944B2670
:105510006B017C012D893E894F89588DCA01B901E3
:105520000F944B269B01AC01C701B6010F946E2C62
:105530004B015C012D853E854F8558896D817E81AB
:105540008F8198850F946D2C2B013C0129893A8914
:105550004B895C8969857A858B859C850F946D2C38
:105560006B017C01A3019201C301B2010F944B2690
:105570002B013C01A7019601C701B6010F944B26F0
:105580009B01AC01C301B2010F946E2C0F94DA2E73
:105590006B017C01298D3A8D4B8D5C8DCA01B9015F
:1055A0000F944B262B013C012D8D3E8D4F8D58A124
:1055B000CA01B9010F944B269B01AC01C301B20192
:1055C0000F946E2C9B01AC01C501B4010F94942E75
:1055D00018169CF520E030E0A901C701B6010F9430
:1055E000942E87FF27C0C701B601905820E030E015
:1055F00040EA50E40F94942E1816FCF4B801C1014F
:1056000005DFA0960FB6F894DEBF0FBECDBFDF91C9
:10561000CF911F910F91FF90EF90DF90CF90BF90AF
:10562000AF909F908F907F906F905F904F903F9042
:105630002F900895C701B601D9CF20E030E040E0B7
:1056400050E4C501B4010F94942E181614F4C80147
:1056500086DE19821A821B821C82A801485F5F4F76
:10566000B8016C5F7F4F9E012F5F3F4FC8018CDDFB
:105670002DEC3CEC4CEC5CE3C701B6010F944B26DF
:105680009B01AC0160913509709136098091370911
:10569000909138090F944B2669837A838B839C837E
:1056A0008091800D81110E94E9FFA101485F5F4F49
:1056B000B1016C5F7F4F9E012F5F3F4FC10164DDE1
:1056C000A0CF0F931F93CF938091390990913A09FE
:1056D0000097E9F0FC018F01C1912C2F2F7D81F003
:1056E000C53411F0C536B9F7F801108270E060E0FA
:1056F0000F948F21F801C083CF911F910F910895CE
:1057000070E060E0CF911F910F910D948F2160E0C8
:1057100070E0CB01F1CF2FEB280F2A3108F042C007
:10572000E22FF0E080916E0990916F09A0917009CD
:10573000B091710904C0B695A795979587952A955C
:10574000D2F780FD02C081700895EF5AF64FE081D4
:10575000EE2329F18091A60D9091A70DE80FF92F66
:10576000F11D808190ED980F9A3030F08E3251F417
:10577000818180538A3098F4F0933A09E093390993
:1057800081E008958D3211F08B3249F4818190EDE2
:10579000980F9A3088F38E3211F48281EACFF0E0CC
:1057A000E0E0EACF80E00895B6DF882341F081E0B1
:1057B0002091390930913A09232B09F480E00895AA
:1057C000CF92DF92EF92FF926A017B01EDDF882397
:1057D00029F0FF90EF90DF90CF9073CFC701B60113
:1057E000FF90EF90DF90CF9008954F925F926F926D
:1057F0007F92AF92BF92CF92DF92EF92FF920F9380
:105800001F93CF93DF9382EAA82E83E0B82E07E59B
:1058100013E1C0E7DDE091E8C92E9DE0D92EF12C1F
:10582000F50181915F01C0DF882339F04ADF2B0148
:105830003C0180915513882351F0F80180819181BA
:10584000A281B38188839983AA83BB8313C08F2DE0
:105850000E94F21D882309F494C0F801208131814F
:1058600042815381C301B2010F946E2C6883798306
:105870008A839B83F3940C5F1F4F2496F4E0CF0E32
:10588000D11C83E0F812CCCF85E48EDF882309F4A5
:1058900082C017DF6B017C0183E00E94F21D882328
:1058A00071F020916313309164134091651350910E
:1058B0006613C701B6010F946E2C6B017C01C09278
:1058C0007C0DD0927D0DE0927E0DF0927F0D40E038
:1058D00050E0BA0186E474DF20E030E0A9010F94C3
:1058E000942E18167CF4EDDE20E030E040E752E420
:1058F0000F944A2D609378027093790280937A0214
:1059000090937B028091561383FD2CC08091551398
:10591000811128C08091C50B882321F12091631348
:1059200030916413409165135091661360917C0D22
:1059300070917D0D80917E0D90917F0D0F946D2C57
:105940002091D20B3091D30B4091D40B5091D50BB9
:105950000F946E2C6093D20B7093D30B8093D40B67
:105960009093D50BDF91CF911F910F91FF90EF9006
:10597000DF90CF90BF90AF907F906F905F904F90EF
:105980000895F6012081318142815381C301B20122
:105990000F946D2C6BCF8091631390916413A09141
:1059A0006513B091661380937C0D90937D0DA09349
:1059B0007E0DB0937F0D8BCFCF93DF93EB01F4DEA1
:1059C000882319F00E944B24EB01CE01DF91CF9187
:1059D0000895CF93DF93EB01E7DE882321F0DF9179
:1059E000CF910C947B24CE01DF91CF910895CF937A
:1059F000C62FDADE882319F0CF910C945B248C2F0C
:105A0000CF910895CF93DF93C82FD62FCDDE882373
:105A100021F0DF91CF910C946C248C2F7CDE8111CE
:105A200001C08D2FDF91CF9108954F925F926F92B9
:105A30007F928F929F92AF92BF92CF92DF92EF921E
:105A4000FF920F931F93CF93DF93EC012091150AE0
:105A50003091160A4091170A5091180A688179818D
:105A60008A819B810F946D2C6B017C012091190A16
:105A700030911A0A40911B0A50911C0A6C817D8159
:105A80008E819F810F946D2C4B015C01A7019601C3
:105A900060910202709103028091040290910502CC
:105AA0000F94E625882309F45AC0C0920202D092CE
:105AB0000302E0920402F09205022091F408309172
:105AC000F5084091F6085091F708C701B6010F9408
:105AD0004B262B013C010F94E32D6B017C0120E050
