:100000000C94951C0C94C61C0C94C61C0C94C61C19
:100010000C94C61C0C94C61C0C94C61C0C94C61CD8
:100020000C94C61C0C94C61C0C94C61C0C94C61CC8
:100030000C94C61C0C94C61C0C94C61C0C94C61CB8
:100040000C94C61C0C94A1B30C94C61C0C94C61C36
:100050000C94C61C0C94C61C0C941BAA0C944FFE4A
:100060000C94C61C0C94838D0C94798D0C94C61C36
:100070000C94C61C0C94C61C0C94C61C0C94C61C78
:100080000C9401320C94C61C0C94C61C0C94C61C17
:100090000C94C61C0C94C61C0C94C61C0C94C61C58
:1000A0000C94C61C0C94C61C0C94D3310C94C61C26
:1000B0000C94C61C0C94C61C0C94C61C0C94A53144
:1000C0000C94C61C0C94C61C0C94C61C0C94E8FA28
:1000D0000C94BEFA0C94C61C0C94C61C0C94C61C42
:1000E0000C94C61C084AD73B3BCE016E84BCBFFDB6
:1000F000C12F3D6C74319ABD56833DDA3D00C77FF8
:1001000011BED9E4BB4C3E916BAAAABE0000008090
:100110003F05A84CCDB2D44EB93836A9020C50B91F
:10012000918688083CA6AAAA2ABE000000803F004B
:100130000D948D110D94561B4E414E494E49545904
:10014000494E46CDCCCC3D0AD7233C17B7D13877A2
:10015000CC2B329595E6241FB14F0A0000204100B8
:1001600000C84200401C4620BCBE4CCA1B0E5AAE02
:10017000C59D7400407A10F35A00A0724E18090011
:1001800010A5D4E80000E87648170000E40B5402FC
:100190000000CA9A3B000000E1F505000080969837
:1001A00000000040420F000000A086010000001087
:1001B0002700000000E803000000006400000000C9
:1001C000000A00000000000100000000002C76D8AA
:1001D00088DC674F0823DFC1DFAE59E1B1B796E590
:1001E000E3E453C63AE651997696E8E6C28426EBF4
:1001F000898C9B62ED407C6FFCEFBC9C9F40F2BA07
:10020000A56FA5F490055A2AF75C936B6CF9676D9E
:10021000C11BFCE0E40D47FEF520E6B500D0ED90F3
:100220002E0300943577050080841E080000204EC0
:100230000A000000C80C333333330F986E12831159
:1002400041EF8D2114893BE65516CFFEE6DB18D130
:10025000844B381BF77C1D901DA4BBE42420328402
:10026000725E228100C9F124ECA1E53D275A5F535B
:10027000544F505F50494E005A5F535445505F50A1
:10028000494E005A5F4D494E5F50494E005A5F45F6
:100290004E41424C455F50494E005A5F4449525FBF
:1002A00050494E005A5F43535F50494E00595F53C7
:1002B000544F505F50494E00595F535445505F5062
:1002C000494E00595F4D494E5F50494E00595F45B8
:1002D0004E41424C455F50494E00595F4449525F80
:1002E00050494E00595F43535F50494E00585F5389
:1002F000544F505F50494E00585F535445505F5023
:10030000494E00585F4D494E5F50494E00585F4579
:100310004E41424C455F50494E00585F4449525F40
:1003200050494E00585F43535F50494E0053554962
:10033000434944455F50494E0053535F50494E0076
:10034000534552564F335F50494E00534552564F16
:10035000325F50494E00534552564F315F50494E1F
:1003600000534552564F305F50494E00534453534B
:100370000053445F4445544543545F50494E005335
:10038000434B5F50494E0052414D50535F44395FDB
:1003900050494E0052414D50535F44385F50494ED2
:1003A0000052414D50535F4431305F50494E004D33
:1003B0004F53495F50494E004D4F534645545F449B
:1003C0005F50494E004D49534F5F50494E004D41DB
:1003D00058363637355F53535F50494E004C4544CD
:1003E0005F50494E004845415445525F4245445F85
:1003F00050494E004845415445525F305F50494E88
:100400000046494C5F52554E4F55545F50494E007F
:1004100046414E315F50494E0046414E5F50494E75
:100420000045315F535445505F50494E0045315FA0
:10043000454E41424C455F50494E0045315F44496D
:10044000525F50494E0045315F43535F50494E0063
:1004500045305F535445505F50494E0045305F452D
:100460004E41424C455F50494E0045305F44495231
:100470005F50494E0045305F43535F50494E004541
:100480005F4D5558325F50494E00455F4D555831CC
:100490005F50494E00455F4D5558305F50494E0002
:1004A0004245455045525F50494E004156525F53B8
:1004B000535F50494E004156525F53434B5F504982
:1004C0004E004156525F4D4F53495F50494E0041D7
:1004D00056525F4D49534F5F50494E0054454D5061
:1004E0005F4245445F50494E0054454D505F315F77
:1004F00050494E0054454D505F305F50494E0046C4
:10050000494C57494454485F50494E0054584400A0
:1005100052584400434F4D4D554E49434154494F65
:100520004E0044525952554E004552524F525300BC
:10053000494E464F004543484F005072696E742043
:10054000506175736564004572726F7220777269CD
:1005500074696E6720746F20454550524F4D210AD3
:1005600000363726033C3D380E2E303E121A1C183A
:1005700008440AFF430809070001627573793A20AD
:1005800070617573656420666F7220696E70757432
:100590000A00627573793A2070617573656420662C
:1005A0006F7220757365720A00627573793A2070F4
:1005B000726F63657373696E670A00706175736546
:1005C000004D363030002066696C616D656E745F79
:1005D00072756E6F7574200066696C616D656E74FE
:1005E0005F72756E6F757420540046696C616D653D
:1005F0006E7452756E6F757420540053544F505082
:1006000045442E20005072696E7465722073746FB9
:10061000707065642064756520746F206572726FF8
:1006200072732E2046697820746865206572726F37
:100630007220616E6420757365204D3939392074DC
:100640006F20726573746172742E202854656D700A
:100650006572617475726520697320726573657463
:100660002E2053657420697420616674657220724F
:10067000657374617274696E67290A004E6F204356
:100680006865636B73756D2077697468206C696E3B
:1006900065206E756D6265722C204C617374204C00
:1006A000696E653A20004E6F20436865636B737511
:1006B0006D2077697468206C696E65206E756D6257
:1006C00065722C204C617374204C696E653A200071
:1006D000636865636B73756D206D69736D617463B9
:1006E000682C204C617374204C696E653A20004C74
:1006F000696E65204E756D626572206973206E6F3C
:1007000074204C617374204C696E65204E756D6267
:1007100065722B312C204C617374204C696E653AE4
:1007200020004D31313000776169740A004D31315C
:1007300037004D3331005344207265616420657287
:10074000726F720A00446F6E65207072696E746910
:100750006E672066696C650A002121204B494C4C6C
:100760002063617573656420627920746F6F206DFA
:1007700075636820696E6163746976652074696D5C
:1007800065202D2063757272656E7420636F6D6DC8
:10079000616E643A200053544F505045442E20005F
:1007A0005072696E7465722073746F707065642026
:1007B00064756520746F206572726F72732E2046A7
:1007C000697820746865206572726F7220616E644A
:1007D00020757365204D39393920746F2072657327
:1007E000746172742E202854656D70657261747521
:1007F00072652069732072657365742E2053657469
:100800002069742061667465722072657374617208
:1008100074696E67290A006563686F3A00457272F1
:100820006F723A0042696C696E656172204C657640
:10083000656C696E6720477269643A0A002121205D
:1008400053544F502063616C6C6564206265636132
:10085000757365206F6620424C546F756368206520
:1008600072726F72202D20726573746172742077BA
:10087000697468204D3939390A0021212053544FB9
:10088000502063616C6C656420626563617573659B
:10089000206F6620424C546F756368206572726FDA
:1008A00072202D2072657374617274207769746888
:1008B000204D3939390A005072696E74696E6720AB
:1008C0004F626A656374002553202569002F2F61EC
:1008D0006374696F6E3A00627574746F6E00656E52
:1008E000640070726F6D70745F0073686F77004D95
:1008F00038373620526573706F6E64696E672050AA
:10090000524F4D50545F00554E4B4E4F574E205353
:10091000544154450047434F44455F494E464F00BC
:100920004C43445F50415553455F524553554D45E7
:100930000046494C414D454E545F52554E4F55541B
:100940005F434F4E54494E55450046494C414D4535
:100950004E545F52554E4F55540044697361626C5A
:100960006552756E6F7574005075726765204D6FB6
:1009700072650050617573656400706175736564BC
:1009800000486F74656E6420746F6F20636F6C64D1
:100990000A004469736D6973730050617573650073
:1009A00053656E64204D31303820746F207265734A
:1009B000756D650A00496E736572742066696C61B5
:1009C0006D656E7420616E642073656E64204D31B8
:1009D00030380A005265686561742066696E697313
:1009E0006865642E0052656865617420446F6E65A9
:1009F00000526568656174696E672E2E2E0052651F
:100A000068656174696E67004865617465725469F0
:100A10006D656F7574005265686561740048656145
:100A200074657254696D656F75740053656E6420EA
:100A30004D31303820746F2068656174206E6F7A94
:100A40007A6C650A004E6F7A7A6C65205061726B21
:100A50006564004E6F7A7A6C65205061726B6564D4
:100A600000486F74656E6420746F6F20636F6C64F0
:100A70000A00726573756D656400626567696E0072
:100A800044697361626C6552756E6F757400507560
:100A90007267654D6F726500506175736564004CD7
:100AA0006F61642046696C616D656E74004C6F61A6
:100AB000642046696C616D656E74205400496E73E4
:100AC0006572742066696C616D656E7420616E6418
:100AD0002073656E64204D3130380A004469736DAF
:100AE00069737300526573756D696E67005761694C
:100AF00074696E6720666F72206865617475702E08
:100B00000A004C656176696E6720473236003F53B4
:100B1000706563696669656420582C5920636F6F3E
:100B20007264696E617465206F7574206F662062EF
:100B30006F756E64732E0A003F28522965706561D7
:100B4000742076616C7565206E6F7420706C6175B1
:100B50007369626C653B206D7573742062652061FA
:100B600074206C6561737420312E0A003F2852296D
:100B70006570656174206D75737420626520737093
:100B800065636966696564207768656E206E6F7459
:100B9000207573696E6720616E204C43442E0A00F5
:100BA0003F537065636966696564206E6F7A7A6C1D
:100BB000652074656D7065726174757265206E6F05
:100BC0007420706C61757369626C652E0A003F5306
:100BD00070656369666965642066696C616D656EE0
:100BE000742073697A65206E6F7420706C61757300
:100BF00069626C652E0A003F5370656369666965BA
:100C000064207072696D65206C656E677468206E13
:100C10006F7420706C61757369626C652E0A003F99
:100C20005072696D65206C656E677468206D7573B0
:100C300074206265207370656369666965642077F6
:100C400068656E206E6F74207573696E6720616EC3
:100C5000204C43442E0A003F537065636966696502
:100C600064206E6F7A7A6C652073697A65206E6F86
:100C70007420706C61757369626C652E0A003F5256
:100C8000657472616374696F6E204D756C74697000
:100C90006C696572206D7573742062652073706570
:100CA0006369666965642E0A003F5370656369660F
:100CB0006965642052657472616374696F6E204D5A
:100CC000756C7469706C696572206E6F7420706CDD
:100CD00061757369626C652E0A003F5370656369C4
:100CE00066696564206C617965722068656967680A
:100CF00074206E6F7420706C61757369626C652E00
:100D00000A0043292E0A003F5370656369666965CE
:100D100064206265642074656D70657261747572BB
:100D200065206E6F7420706C61757369626C6520EC
:100D30002834302D00473236207374617274696E26
:100D4000672E2E2E0A004F46460A00466164652033
:100D50004865696768742000426564204C65766563
:100D60006C696E6720004661696C656420746F2051
:100D7000656E61626C6520426564204C6576656CC9
:100D8000696E670A00496E76616C6964206D6573EF
:100D9000682E0A0050726F62696E6720506F696E2C
:100DA000740025532025692F2569002E0A002F0085
:100DB00050726F62696E67206D65736820706F692D
:100DC0006E742000202844525952554E2900473253
:100DD00039204175746F20426564204C6576656CDE
:100DE000696E67003F20284C2C522C462C4229204B
:100DF0006F7574206F6620626F756E64732E0A00C3
:100E00003F2856296572626F7365206C6576656C44
:100E100020696D706C61757369626C652028302D76
:100E200034292E0A00426164205A2076616C75656F
:100E30000A004E6F2062696C696E6561722067728C
:100E400069640A005374616E64617264204465765B
:100E5000696174696F6E3A20002052616E67653A6D
:100E60002000204D61783A2000204D696E3A200024
:100E70004D65616E3A200046696E6973686564214C
:100E80000A002072616E67653A2000206D61783A31
:100E90002000206D696E3A2000207369676D613A09
:100EA0002000206D65616E3A20003A207A3A2000D9
:100EB000206F662000476F696E6720746F3A205874
:100EC0000043570A00206469723A0020616E676C23
:100ED000653A005374617274207261646975733A83
:100EE00000506F736974696F6E696E67207468650E
:100EF0002070726F62652E2E2E0A003F4E756D6255
:100F00006572206F66206C65677320696E206D6F57
:100F100076656D656E74206E6F7420706C6175738C
:100F200069626C652028302D3135292E0A003F205A
:100F300028582C5929206F7574206F6620626F75B0
:100F40006E64732E0A003F53616D706C6520736987
:100F50007A65206E6F7420706C61757369626C6560
:100F60002028342D3530292E0A004D3438205A2DB2
:100F700050726F6265205265706561746162696C60
:100F800069747920546573740A003F285629657284
:100F9000626F7365206C6576656C20696D706C613D
:100FA000757369626C652028302D34292E0A002063
:100FB0005400205200416363656C65726174696F0F
:100FC0006E3A20500050574D3A202025346400508E
:100FD000574D3A20202534640050574D3A202025A3
:100FE00034640050574D3A20202534640050574D4A
:100FF0003A20202534640050574D3A20202534648F
:101000000050574D3A20202534640050574D3A2067
:10101000202534640050574D3A2020253464005078
:10102000574D3A20202534640050574D3A20202552
:1010300034640050574D3A20202534640050574DF9
:101040003A20202534640050574D3A20202534643E
:101050000050574D3A20202534640050574D3A2017
:1010600020253464003A200020202020434F4D00EA
:101070002020206E6F6E2D7374616E646172642027
:1010800050574D206D6F646500202020636F6D7098
:1010900061726520696E7465727275707420656E18
:1010A00061626C6564002020206F766572666C6FEB
:1010B0007720696E7465727275707420656E6162F6
:1010C0006C6564003A20002020202054494D534B89
:1010D00000423A2000202020205443435200413A4D
:1010E0002000202020205443435200202020204371
:1010F000533A20002020202057474D3A20005057D7
:101100004D3A20202534640050574D3A2020253494
:10111000640047004800000088008A008C00B3008B
:10112000B400000098009A009C00A800AA00AC003F
:1011300028012A012C012020202054494D4552002D
:10114000440045006E00800081006F00B000B100D7
:101150007000900091007100A000A10072002001B9
:101160002101730020697320616C736F20746965BD
:101170006420746F20746869732070696E0054492C
:101180004D45523143000A202E00202000202050DF
:101190006F72743A200020202000202020416E61D0
:1011A0006C6F6720696E203D2025356C64003C75AE
:1011B0006E757365642F756E6B6E6F776E3E002073
:1011C000284125326429202000253364200025731E
:1011D00050494E3A20004F7574707574203D2000C0
:1011E000496E70757420203D2000416E616C6F6700
:1011F00020696E203D2025356C640070726F746527
:101200006374656420002028412532642920200071
:101210002533642000257350494E3A200010050004
:10122000010C050101FF043B00F4044300E90445FF
:1012300000DC044400CF043201C2043301B604349C
:1012400001AB043501A0042501950428018A042A74
:10125000017F042C0175042A016A041C015C041836
:101260000150041A0146042C013B0422012D041EE6
:1012700001210424011904090110040701010402D9
:1012800001F4030A01E5030801DD030D01CE034269
:1012900001C5033201B8030701AF033301A1030AFB
:1012A0000194030801870309017F033401710331AD
:1012B000016C03350161030B01560306014B030565
:1012C0000140030401390335012D030C01240335CA
:1012D000011A0337010D03260103030301F8023647
:1012E00001ED020301E4023101DA023D01CD0238D1
:1012F00001C3020E01B8023C01AD020E01A4022896
:10130000019A0230018D023E018302120178022E01
:10131000016D021201446F6E652E0A0066616C73E6
:1013200065004641494C3A204E6F207472696767E8
:1013300065722064657465637465640A004641499A
:101340004C3A204E6F6973652064657465637465FB
:1013500064202D20706C656173652072652D727537
:101360006E20746573740A00206465746563746527
:10137000642E0A003D20424C546F756368207072E1
:10138000652056332E3120286F7220636F6D706197
:101390007469626C6529003D205A20536572766F2E
:1013A0002050726F6265003D20424C546F75636837
:1013B0002056332E310020282B2F2D20346D7329F9
:1013C0003A20003A2033306D73206F72206D6F72B7
:1013D000650A002E2050756C736520776964746807
:1013E000002A2A20506C65617365207472696767F2
:1013F00065722070726F62652077697468696E200B
:10140000333020736563202A2A0A004641494C3A4A
:1014100020424C544F55434820656E61626C6564B0
:10142000202D2053657420757020746869732064C2
:101430006576696365206173206120536572766FFC
:101440002050726F6265207769746820494E564556
:101450005254494E472073657420746F202774726C
:101460007565272E0A0020204445504C4F594544AD
:101470002073746174653A204C4F5720286C6F6755
:1014800069632030290020204445504C4F59454481
:101490002073746174653A204849474820286C6F6E
:1014A000676963203129003D204D656368616E697D
:1014B00063616C2053776974636820646574656345
:1014C0007465640A005741524E494E473A20494ECE
:1014D00056455254494E472073657474696E6720AF
:1014E00070726F6261626C79206261636B776172A6
:1014F00064732E0A002E204465706C6F79202620BC
:1015000073746F7720342074696D65730A003D2011
:10151000424C546F75636820436C61737369632038
:10152000312E322C20312E332C20536D61727420D9
:10153000312E302C20322E302C20322E322C2033E3
:101540002E302C20332E31206465746563746564FD
:101550002E0A002E20436865636B20666F7220425E
:101560004C544F5543480A002E205A5F4D494E5F58
:10157000454E4453544F505F494E56455254494E80
:10158000473A20002E2050726F6265205A5F4D4905
:101590004E5F50494E3A20002C2073746F772061C3
:1015A0006E676C653A202020002C206465706C6F9B
:1015B0007920616E676C653A2000536572766F2002
:1015C00070726F626520746573740A2E207573697A
:1015D0006E6720696E6465783A2020004D343320B0
:1015E000576169742043616C6C6564004D3433202D
:1015F000576169742043616C6C6564005761746362
:1016000068696E672070696E730A006469730065AB
:101610006E0061626C65640A00656E6473746F705D
:10162000206D6F6E69746F72200020580020204D6D
:1016300061783A2000200020204D696E3A20005346
:101640006F667420656E6473746F70733A20004720
:1016500032380020496E76616C6964206578747256
:1016600075646572200047322F4733206261642021
:10167000706172616D65746572730A00536C6565A3
:10168000702E2E2E005A2050726F626520506173AA
:1016900074204265640A005A2050726F62652050BF
:1016A0006173742042656400486F6D65205859204D
:1016B00066697273740A00486F6D65205859204638
:1016C00069727374004D3131372050726F6265203A
:1016D0006661696C65642E0A4732380A0070726F61
:1016E00062655F726577697065004469736D6973DF
:1016F0007300473239205265747279696E67005001
:10170000726F62696E67204661696C6564004D3175
:10171000313720426564206C6576656C696E6720A0
:101720006661696C65642E0A4730205A31300A4D73
:101730003330302050323520533838300A4D333072
:1017400030205035302053300A4D33303020503265
:101750003520533838300A4D333030205035302062
:1017600053300A4D33303020503235205338383022
:101770000A4D333030205035302053300A47342062
:1017800053310070726F62655F6661696C656400F9
:101790004D31313720426564206C6576656C696E29
:1017A0006720646F6E652E00205A3A200020593A57
:1017B000200042656420583A20004D65736820700F
:1017C0006F696E742063616E6E6F74206265207243
:1017D00065736F6C7665640A004E6F204D6F766599
:1017E0002E00456E642066696C65206C6973740A0E
:1017F00000426567696E2066696C65206C69737468
:101800000A004469736D69737300526573756D697D
:101810006E6720534400286E6F2066696C6529004E
:1018200043757272656E742066696C653A20002E8D
:101830000A0044656C6574696F6E206661696C6549
:10184000642C2046696C653A200046696C6520640A
:10185000656C657465643A005072696E74207469D1
:101860006D653A20000A53746174733A2046696CBE
:10187000616D656E7420757365643A20002C204C90
:101880006F6E67657374206A6F623A2000546F74DC
:10189000616C2074696D653A200053746174733A09
:1018A00020002C204661696C65643A20002C20469B
:1018B000696E69736865643A20005072696E74736A
:1018C0003A200053746174733A2000436F6F6C695F
:1018D0006E672E2E2E0048656174696E672E2E2E5F
:1018E0000045202553006F6B006F6666003505309C
:1018F0000529052205140544454255473A004D3156
:10190000313320530042656420436F6F6C696E670A
:101910002E2E2E004265642048656174696E672E24
:101920002E2E004348414D4245525F54454D50458F
:10193000524154555245004D4F54494F4E5F4D4F03
:1019400044455300544845524D414C5F50524F540A
:10195000454354494F4E004155544F5245504F5204
:10196000545F53445F5354415455530050524F4DAC
:1019700050545F535550504F525400454D455247B7
:10198000454E43595F5041525345520043415345E0
:101990005F4C494748545F4252494748544E45536B
:1019A0005300544F47474C455F4C494748545300F8
:1019B000534F4654574152455F504F57455200428E
:1019C00055494C445F50455243454E54004C455692
:1019D000454C494E475F44415441005A5F50524F75
:1019E0004245004155544F4C4556454C00505249D4
:1019F0004E545F4A4F420050524F47524553530096
:101A00004155544F5245504F52545F54454D50002C
:101A1000564F4C554D455452494300454550524F41
:101A20004D0042494E4152595F46494C455F545220
:101A3000414E534645520053455249414C5F584F21
:101A40004E5F584F4646004649524D574152455FFA
:101A50004E414D453A4D61726C696E20322E305FB9
:101A600044573520544D33442053534D4442422073
:101A7000534F555243455F434F44455F55524C3A8F
:101A800068747470733A2F2F6769746875622E6377
:101A90006F6D2F496E73616E6974794175746F6DE6
:101AA0006174696F6E2F4D61726C696E2F7472650F
:101AB000652F437265616C6974794477696E5F3232
:101AC0002E302050524F544F434F4C5F5645525387
:101AD000494F4E3A312E30204D414348494E455FE3
:101AE000545950453A544D334420313053205072AC
:101AF0006F2045585452554445525F434F554E54FC
:101B00003A3120555549443A63656465326132661D
:101B10002D343161322D343734382D396231322D44
:101B20006335356336326633363766660A002F2FE3
:101B300020003F4A206F7574206F662072616E67C7
:101B4000652028302E303120746F20302E33290A42
:101B50000020466C6F773A200050726F7465637492
:101B600065642050696E0A003A2000205365727641
:101B70006F2000206F7574206F662072616E67653C
:101B80000A00536572766F200020643A0020693A9B
:101B90000020703A00496E76616C69642065787443
:101BA00072756465720A0020643A0020693A002068
:101BB000703A0064697300656E0043290A0061622F
:101BC0006C656420286D696E2074656D702000431B
:101BD0006F6C6420657874727564657320617265DA
:101BE00020004F4646004F4E0046696C616D656EA1
:101BF000742072756E6F75742064697374616E639E
:101C00006520286D6D293A200046696C616D656E0E
:101C1000742072756E6F757420004D657368207046
:101C20006F696E742063616E6E6F742062652072DE
:101C300065736F6C7665640A004D34323120696ECD
:101C4000636F727265637420706172616D65746533
:101C5000722075736167650A004F666673657473F9
:101C6000204170706C696564004572723A20546F4F
:101C70006F206661722100546F6F2066617220666A
:101C8000726F6D207265666572656E636520706F38
:101C9000696E740A00454550524F4D204F4B0A0063
:101CA000446966663A200046726F6D5374703A005C
:101CB000537465707065723A00556E4C6576656C4C
:101CC0003A004C6576656C65643A005261773A205B
:101CD000202020000A4C6F676963616C3A00436FF3
:101CE000756E7420453A004361703A00436F6E741C
:101CF000696E7565004D302F3120427265616B2031
:101D000043616C6C656400436C69636B20746F2085
:101D1000526573756D652E2E2E0050726F626520B0
:101D20004F6666736574205A0050726F6265204F6B
:101D300066667365745A3A2000290A0020746F2081
:101D4000003F5A206F7574206F662072616E676560
:101D5000202800290A0020746F20003F59206F7549
:101D600074206F662072616E676520282D00290A35
:101D70000020746F20003F58206F7574206F66201C
:101D800072616E676520282D0050726F6265204F6A
:101D90006666736574205800220A00656E71756569
:101DA0007565696E672022002042002050006F6B2D
:101DB00000526573656E643A200043616E6E6F7405
:101DC000206F70656E2073756264697220002569EA
:101DD000730025696D2025697300256968202569D0
:101DE0006D202569730025696420256968202569AF
:101DF0006D2025697300256979202569642025698E
:101E0000682025696D202569730023646566696E05
:101E1000652044454641554C545F00626564004B63
:101E20006420004B6920004B702000504944204141
:101E300075746F74756E652066696E697368656424
:101E4000212050757420746865206C617374204B78
:101E5000702C204B6920616E64204B6420636F6E90
:101E60007374616E74732066726F6D2062656C6F3F
:101E70007720696E746F20436F6E66696775726153
:101E800074696F6E2E680A00504944204175746F62
:101E900074756E65206661696C6564212074696D76
:101EA000656F75740A00546865726D616C205275B7
:101EB0006E617761790048656174696E672066615B
:101EC000696C656400504944204175746F74756E87
:101ED00065206661696C6564212054656D7065726A
:101EE000617475726520746F6F20686967680A0095
:101EF000204B643A2000204B693A2000204B703A76
:101F000020000A20436C61737369632050494420A8
:101F10000A00204B643A2000204B693A2000204BF5
:101F2000703A20000A204E6F206F76657273686FDA
:101F30006F740A002054753A2000204B753A200037
:101F4000206D61783A2000206D696E3A200020648F
:101F50003A200020626961733A20005049442041D0
:101F600075746F74756E652073746172740A0050B5
:101F70004944204175746F74756E65206661696CA3
:101F80006564212054656D70657261747572652099
:101F9000746F6F20686967680A0050494420417572
:101FA000746F74756E65206661696C65642120428A
:101FB0006164206578747275646572206E756D62F7
:101FC00065720A004D323520500A4D323400526598
:101FD00073756D65005549205061757365004E6FCE
:101FE000204D61746368203A004D333033452D3104
:101FF000533635433455004D3939390A4D3238306E
:10200000503053313630004D3530320A4D35303096
:10201000004D333033453053323135433855000AA3
:10202000202A2A2A7265636461742E646174615B7C
:10203000305D203D004732380A473120463130308C
:1020400030205A313000556E737570706F72746540
:1020500064204F7074696F6E2053656C656374659E
:10206000640047323652323535004D313930533500
:10207000350A4732380A4732390A4D3430300A4D72
:10208000313034533231350A4732380A4D31303924
:10209000533231350A4D34323053310A47315831D9
:1020A00030305931303046353030300A47315A30CF
:1020B0000A4D3530300A4D31313720536574205A7E
:1020C000204F6666736574004731204631303030EA
:1020D000205A302E30004732380A473120463130FE
:1020E0003030205A302E30004D353030005A204FDD
:1020F0006666736574203A202573004D35303000D4
:102100005A204F6666736574203A20257300473263
:10211000380A473146313530305A302E3000473298
:10212000385A0A473146313530305A302E30004D5A
:10213000383400473146313030305A302E30004785
:1021400032380A473146313030305A302E30005A5A
:10215000204F6666736574203A202573004D353034
:10216000300053746F7020547269676765726564DC
:102170000053746F70204E6F004D38340042656715
:10218000696E537769746368007265636461742E65
:1021900061646472203D3D007265636461742E6405
:1021A0006174615B305D203D3D00776169747761EA
:1021B00079203D3D000A202A2A2A4E6F7A7A6C65E2
:1021C00054656D705374617475735B325D203D00AE
:1021D000544D3344203130532050726F205265618A
:1021E00064792E005072696E74696E672E2E2E000F
:1021F00063616E63656C005072696E742041626F3A
:1022000072746564004469736D6973730055492085
:1022100041626F7274656400726573756D6500006C
:10222000809D4300009B430000C843000000000065
:1022300000000000000000290A0020627974657324
:102240003B20637263200053657474696E6773206A
:1022500053746F726564202800454550524F4D20DD
:102260006461746173697A65206572726F722E0A97
:1022700000290A002062797465733B206372632031
:10228000002073746F7265642073657474696E677F
:102290007320726574726965766564202800202851
:1022A00063616C63756C6174656429210A00202187
:1022B0003D2000454550524F4D20435243206D690B
:1022C000736D61746368202D202873746F72656468
:1022D0002920002053697A653A2000496E646578A8
:1022E0003A2000204D61726C696E3D563734290AE0
:1022F00000454550524F4D2076657273696F6E20D0
:102300006D69736D617463682028454550524F4D67
:102310003D000A20696E6974207A70726F62655F91
:102320007A6F6666736574203D2000454550524FB4
:102330004D20496E697469616C697A65640A004868
:10234000617264636F6465642044656661756C7472
:102350002053657474696E6773204C6F61646564A3
:102360000A000000FA430000FA4300002041000088
:102370008C420000A0420000A0420000C8430000C0
:102380000C43EE020000EE020000640000003C007E
:1023900000003A0A0020204D36303320002044004F
:1023A00020204D34313220530046696C616D656EDA
:1023B000742072756E6F75742073656E736F723AE8
:1023C0000A002055004C0046696C616D656E7420F2
:1023D0006C6F61642F756E6C6F6164206C656E67E5
:1023E0007468733A0A0020204D3835312058005A5D
:1023F0002D50726F6265204F6666736574002044CD
:102400000020490020204D3330342050002044006B
:1024100020490020204D33303120500050494420C5
:1024200073657474696E67733A0A00204A0020204D
:10243000473239205720490020204D343230205374
:10244000004175746F20426564204C6576656C6947
:102450006E673A0A0020204D323036205800486F0F
:102460006D65206F66667365743A0A00204A002025
:10247000540020530020204D323035204200204AA5
:102480003C6A756E635F6465763E00416476616E9A
:102490006365643A20423C6D696E5F7365676D6584
:1024A0006E745F74696D655F75733E20533C6D6932
:1024B0006E5F66656564726174653E20543C6D694B
:1024C0006E5F74726176656C5F6665656472617477
:1024D000653E0020540020520020204D3230342030
:1024E0005000416363656C65726174696F6E20288A
:1024F000756E6974732F7332293A20503C7072697B
:102500006E745F616363656C3E20523C72657472E9
:102510006163745F616363656C3E20543C747261F7
:1025200076656C5F616363656C3E0A0020204D3206
:1025300030312058004D6178696D756D20416363BD
:10254000656C65726174696F6E2028756E6974734D
:102550002F7332293A0A0020204D323033205800A0
:102560004D6178696D756D2066656564726174652D
:10257000732028756E6974732F73293A0A00537497
:102580006570732070657220756E69743A0A002058
:10259000204D3230302044300A0020204D3230307F
:1025A0002044002044697361626C65640A004669D6
:1025B0006C616D656E742073657474696E67733ACF
:1025C0000020286D6D290020204732312020202056
:1025D0003B20556E69747320696E206D6D00486FE5
:1025E0006D696E67204661696C6564006F70656E29
:1025F00000545249474745524544003A2000666915
:102600006C616D656E74007A5F6D696E00795F6DE7
:10261000696E00785F6D696E005265706F727469E3
:102620006E6720656E6473746F7020737461747567
:10263000730A00205A3A0020593A0020436F756E01
:102640007420583A0020453A00205A3A0020593A5E
:1026500000583A0020746F6F206C6F6E67206578A9
:1026600074727573696F6E2070726576656E7465CD
:10267000640A0020636F6C642065787472757369F6
:102680006F6E2070726576656E7465640A00000076
:1026900000000000000000000000000048420000B0
:1026A0004842000080405761726E696E673A204868
:1026B0006F6D696E672042756D702044697669732D
:1026C0006F72203C20310A000202040000A040008A
:1026D00000A0400000004000809D4300009B43009C
:1026E00000C843FFFFFF00000001000000010000E0
:1026F0008000555555000000400033333300AAAA2E
:102700002A004992240000002000C7711C009999FA
:102710001900D1451700555515003BB11300244948
:10272000120011111100000010000F0F0F00E3380C
:102730000E0043790D00CCCC0C00C3300C00E8A295
:102740000B0064210B00AAAA0A00703D0A009DD864
:102750000900427B090092240900DCD30800888824
:1027600008001042080000000800F0C10700878739
:10277000070075500700711C07003EEB0600A1BC66
:1027800006006990060066660600703E0600611845
:10279000060017F4050074D105005BB00500B29087
:1027A0000500627205005555050078390500B81E10
:1027B0000500050505004EEC040087D40400A1BD0A
:1027C000040090A7040049920400C17D0400EE6952
:1027D0000400C7560400444404005C32040008218D
:1027E000040041100400000004003FF00300F8E082
:1027F000030026D20300C3C30300CCB503003AA8EC
:1028000003000A9B0300388E0300C08103009F75FC
:102810000300D0690300505E03001D5303003448D9
:102820000300913D03003333030016290300381FD2
:10283000030097150300300C0300030303000BFA99
:10284000020049F10200BAE802005CE002002DD863
:1028500002002DD0020059C80200B0C0020031B9F8
:102860000200DAB10200AAAA0200A0A30200BC9CE6
:102870000200FA9502005C8F0200DF88020082826B
:102880000200457C02002776020027700200436A9E
:1028900002007C640200D05E02003F590200C8536F
:1028A0000200FFFDFCFAF8F6F4F2F0EEECEAE9E7DC
:1028B000E5E3E1E0DEDCDAD9D7D5D4D2D0CFCDCB99
:1028C000CAC8C7C5C3C2C0BFBDBCBAB9B7B6B4B326
:1028D000B2B0AFADACAAA9A8A6A5A4A2A1A09E9D86
:1028E0009C9A99989795949392908F8E8D8B8A89C4
:1028F00088878684838281807F7E7D7B7A797877E2
:10290000767574737271706F6E6D6C6B6A696867DF
:10291000666564636261605F5E5D5C5B5A595858CE
:102920005756555453525150504F4E4D4C4B4A4AA6
:102930004948474646454443424241403F3E3E3D6A
:102940003C3B3B3A3938383736353534333232311F
:1029500030302F2E2E2D2C2B2B2A292928272726C5
:10296000252524232322212120201F1E1E1D1C1C5F
:102970001B1B1A19191818171616151514131312EC
:10298000121111100F0F0E0E0D0D0C0C0B0A0A096F
:1029900009080807070606050504040303020201E7
:1029A000000024F4D43050C38E20C2A24017828B82
:1029B0007011127A910D816CD90AA861E108C7588B
:1029C0006607615143061E4B5D05C145A7041A41C8
:1029D0001104093D9803713931034036DB02653338
:1029E0009102D4305402802E1D02632CEE01752A10
:1029F000C501B028A001102781018F2564012B2477
:102A00004B01E0223401AC211F018D200D01801FFC
:102A1000FC00841EED00971DDF00B81CD200E61BF1
:102A2000C600201BBC00641AB200B219A8000A1923
:102A3000A0006A189900D117910040178B00B516B5
:102A4000840031167E00B31579003A157300C7145F
:102A50006F0058146A00EE13660088136300251394
:102A60005E00C7125B006C12570015125400C111B2
:102A7000510070114F0021114B00D61049008D10EC
:102A800047004610440002104200C00F4000800F73
:102A90003E00420F3C00060F3B00CB0E3800930E69
:102AA00037005C0E3500270E3400F30D3200C10DE7
:102AB0003100900D3000600D2E00320D2D00050DFF
:102AC0002C00D90C2B00AE0C2900850C29005C0CC5
:102AD0002700350C27000E0C2600E80B2400C40B41
:102AE0002400A00B23007D0B23005A0B2100390B7F
:102AF0002100180B2000F80A1F00D90A1E00BB0A8B
:102B00001E009D0A1D00800A1D00630A1C00470A62
:102B10001B002C0A1B00110A1A00F7091A00DD0914
:102B20001900C4091900AB091900920917007B09A3
:102B30001800630917004C09160036091600200911
:102B400016000A091500F5081500E0081400CC0865
:102B50001400B8081400A4081400900813007D089D
:102B600012006B08130058081200460812003408BF
:102B70001100230811001208110001081100F007CC
:102B80001000E0071000D0071000C0071000B007C9
:102B90000F00A107100091070E0083070F007407B4
:102BA0000F0065070E0057070E0049070E003B0790
:102BB0000D002E070E0020070D0013070D0006075D
:102BC0000D00F9060C00ED060D00E0060C00D40621
:102BD0000C00C8060C00BC060C00B0060C00A406D5
:102BE0000B0099060C008D060B0082060B00770681
:102BF0000B006C060B0061060A0057060B004C0622
:102C00000A0042060A0038060A002E060A002406B8
:102C10000A001A060A001006090007060A00FD0548
:102C20000900F4050900EB050900E2050900D905D2
:102C30000900D0050900C7050900BE050900B50552
:102C40000800AD050800A50509009C0508009405CD
:102C500008008C050800840508007C050800740540
:102C600008006C050700650508005D0507005605AE
:102C700008004E0507004705070040050800380515
:102C80000700310507002A050700230507001C057A
:102C90000600160507000F050700080506000205D7
:102CA0000700FB040600F5040700EE040600E80434
:102CB0000600E2040700DB040600D5040600CF048A
:102CC0000600C9040600C3040600BD040600B704DC
:102CD0000600B1040500AC040600A6040600A0042A
:102CE00005009B04060095040500900406008A0474
:102CF000050085040500800406007A0405007504BB
:102D00000500700405006B040500660405006104FD
:102D100005005C04050057040500520405004D043D
:102D2000050048040500430405003E0404003A047D
:102D3000050035040500300404002C0405002704B8
:102D40000400230405001E0404001A0404001604F1
:102D50000500110404000D04040009040500040426
:102D6000040000040400FC030400F8030400F4035E
:102D70000400F0030400EC030400E8030400E4038F
:102D80000400E0030400DC030400D8030400D403BF
:102D90000400D0030400CC030400C8030300C503EF
:102DA000030024F404D9201BC40C5C0E9804C4094D
:102DB0005F0265077101F405F900FB04B3004804E4
:102DC0008700C10369005803550003034500BE0294
:102DD0003A008402310053022A002902250004022D
:102DE0002000E4011C00C8011900AF011700980180
:102DF00014008401130071011000610110005101E1
:102E00000E0043010D0036010B002B010B002001C9
:102E10000B00150109000C01090003010800FB006B
:102E20000800F3000800EB000700E4000600DE00E5
:102E30000600D8000600D2000600CC000500C7003E
:102E40000500C2000500BD000400B9000400B50083
:102E50000400B1000400AD000400A9000400A500B6
:102E60000300A20003009F0004009B0003009800E1
:102E700003009500020093000300900003008D0002
:102E800002008B000300880002008600020084001C
:102E90000300810002007F0002007D0002007B0031
:102EA0000200790002007700010076000200740041
:102EB000020072000100710002006F0002006D004C
:102EC00001006C0002006A00010069000200670056
:102ED000010066000100650001006400020062005C
:102EE000010061000100600001005F0002005D0060
:102EF00001005C0001005B0001005A000100590064
:102F00000100580001005700010056000100550063
:102F10000100540001005300000053000100520062
:102F2000010051000100500001004F0001004E005F
:102F300000004E0001004D0001004C0001004B005C
:102F400000004B0001004A00010049000100480058
:102F50000000480001004700010046000000460054
:102F6000010045000000450001004400010043004D
:102F70000000430001004200000042000100410047
:102F8000000041000100400001003F0000003F0040
:102F900001003E0000003E0001003D0000003D0039
:102FA00001003C0000003C0000003C0001003B0030
:102FB00000003B0001003A0000003A000100390027
:102FC000000039000100380000003800000038001F
:102FD0000100370000003700010036000000360015
:102FE000000036000100350000003500000035000B
:102FF0000100340000003400000034000100330000
:1030000000003300000033000100320000003200F5
:1030100000003200010031000000310000003100EA
:1030200001003000000030000000300001002F00DF
:1030300000002F0000002F0000002F0001002E00D4
:1030400000002E0000002E0001002D0000002D00C9
:1030500000002D0000002D0001002C0000002C00BD
:1030600000002C0000002C0001002B0000002B00B1
:1030700000002B0000002B0001002A0000002A00A5
:1030800000002A0000002A00010029000000290099
:10309000000029000000290000002900010028008C
:1030A0000000280000002800000028000000280080
:1030B0000100270000002700000027000000270073
:1030C0000000270001002600000026000000260066
:1030D0000000260000002600010025000000250059
:1030E000000025000000250000002500000025004C
:1030F000010024000000240000002400000024003F
:103100000000240001002300000023000000230031
:103110000000230000002300000023000000230023
:103120000100220000002200000022000000220016
:103130000000220000002200010021000000210008
:1031400000002100000021000000210000002100FB
:1031500000002100010020000000200000002000ED
:1031600000002000000020000000200000002000DF
:103170000000200001001F0000001F0000001F00D1
:1031800000001F0000001F0000001F0000001F00C3
:1031900001001E0000001E0000001E0000001E00B6
:1031A0000000393000003325000087190000B00FFF
:1031B0000000DB080000BD040000740200003F01B5
:1031C000000042656400453100626564002C207394
:1031D000797374656D2073746F7070656421204815
:1031E00065617465725F49443A200048656174699D
:1031F0006E67206661696C656400546865726D6114
:103200006C2052756E617761790048656174696EF2
:1032100067204661696C65640048656174696E6722
:10322000206661696C656400546865726D616C202C
:1032300052756E61776179001000C90210012C018E
:103240004001220170011801B0010E01F0010401DA
:103250005002FA00B002F0003003E600D003DC00B8
:103260009004D2007005C800A006BE000008B4009B
:10327000B009AA00D00BA000600E960060118C006F
:103280000015820020197800C01D6E00A022640085
:10329000B0275A00902C500000314600E0343C002A
:1032A00010383200903A2800603C1E00A03D140007
:1032B000803E0A00203F0000544845524D414C20BA
:1032C00052554E4157415900546865726D616C20EA
:1032D00052756E61776179004572723A204D41589E
:1032E00054454D50004D415854454D50207472691D
:1032F000676765726564004572723A204D494E54A5
:10330000454D50004D494E54454D502074726967EB
:103310006765726564000A0A0020205A5F4D494EB5
:103320003A002020595F4D494E3A002020585F4D09
:10333000494E3A004D383420582059205A20450033
:10334000202F002042403A0020403A0020573A0007
:1033500020573A00496E76616C6964206578747212
:10336000756465720A0070012C0190012701B0019B
:103370002201C0011D01F0011801100213013002E9
:103380000E016002090190020401C002FF00000367
:10339000FA004003F5008003F000D003EB002004A6
:1033A000E6007004E100E004DC004005D700C00541
:1033B000D2004006CD00D006C8008007C300300808
:1033C000BE00F008B900C009B400B00AAF00B00BED
:1033D000AA00D00CA500000EA000500F9B00C0104A
:1033E00096005012910000148C00C0158700B01791
:1033F0008200B0197D00D01B7800001E73004020B1
:103400006E0090226900F024640040275F0090293C
:103410005A00E02B5500102E500020304B00103287
:103420004600E033410090353C00103737007038DB
:103430003200A0392D00B03A2800A03B2300603CA8
:103440001E00103D1900903D1400103E0F00703E0C
:103450000A00C03E0500003F0000403FFBFF803FE8
:10346000F6FFC03FF1FF7C3C3E5E2B3D3F2F5B5D96
:103470003B2C2A225C0043616E6E6F74206F706576
:103480006E20737562646972200053442063617218
:1034900064206F6B0A006F70656E526F6F742066E8
:1034A00061696C65640A00766F6C756D652E696E76
:1034B0006974206661696C65640A00534420696E12
:1034C0006974206661696C0A004D3234004D3233F4
:1034D0002025730046696C652073656C65637465AF
:1034E000640A002053697A653A200046696C6520B9
:1034F0006F70656E65643A2000454E442053554216
:10350000524F5554494E450A002220706F730022D5
:1035100020706172656E743A2200535542524F55C5
:1035200054494E452043414C4C2074617267657488
:103530003A2200747279696E6720746F2063616C3F
:103540006C207375622D67636F64652066696C65B6
:1035500073207769746820746F6F206D616E7920B5
:103560006C6576656C732E204D4158206C657665D0
:103570006C2069733A310A002E0A006F70656E2064
:103580006661696C65642C2046696C653A20005759
:10359000726974696E6720746F2066696C653A2081
:1035A000005344207072696E74696E67206279748A
:1035B0006520004E6F74205344207072696E7469E8
:1035C0006E670A00667265736800646F696E6700F3
:1035D0002066696C653A20004E6F7720000000215C
:1035E00000240027002A002D0030003300010100D4
:1035F00000040107010A0100002200250028002B19
:10360000002E003100340002010000050108010B0A
:1036100001000020002300260029002C002F00328A
:103620000000010000030106010901050505050769
:103630000508080808020202020A0A08080404042D
:103640000401010101010101010303030303030359
:1036500003040707070C0C0C0C0C0C0C0C020202E8
:103660000206060606060606060B0B0B0B0B0B0BDB
:103670000B0102102020080810204010204080027A
:1036800001020108040201010204081020408080A8
:10369000402010080402018004020180402010082C
:1036A0000402010804020101020408102040800104
:1036B0000204081020408000000A0B02090C0D0EC5
:1036C00008070304010000000000000000000000E3
:1036D00000000000000000000000000000000000EA
:1036E00000000012111000000000000000000000A7
:1036F000000000000000000000000000002020503A
:103700006C616E6E6572427566666572427974654B
:10371000733A20002046726565204D656D6F7279A1
:103720003A2000436F6D70696C65643A204A616E9F
:1037300020203620323032300A00204C6173742051
:10374000557064617465643A20323031392D3130FE
:103750002D3237207C20417574686F723A2054698D
:103760006E794D616368696E657333440A00322E69
:10377000305F4457350A004D61726C696E0020530A
:103780006F6674776172652052657365740A0020F4
:103790005761746368646F672052657365740A00CB
:1037A0002042726F776E206F757420526573657456
:1037B0000A002045787465726E616C2052657365ED
:1037C000740A00506F77657255700A0073746172E5
:1037D000740A006175746F25632E6700473238588C
:1037E00059006572726F722077726974696E672012
:1037F000746F2066696C650A00446F6E65207361A2
:1038000076696E672066696C652E0A004D32390054
:10381000205A3A0020593A0020583A00656E6473E5
:10382000746F7073206869743A200050726F626917
:103830006E67204661696C65640A0050726F626948
:103840006E67204661696C656400205A3A2000204A
:10385000593A200042656420583A2000486F6D654F
:103860002025732573257320466972737400220A1C
:1038700000556E6B6E6F776E20636F6D6D616E6459
:103880003A20220020746F6F206C6F6E672065787D
:1038900074727573696F6E2070726576656E74658B
:1038A000640A0020636F6C642065787472757369B4
:1038B0006F6E2070726576656E7465640A002045CF
:1038C00000205A00205900204D39322058002E0A7D
:1038D000006F70656E206661696C65642C204669B6
:1038E0006C653A20006E6F74696669636174696F14
:1038F0006E2000706F7765726F6666004B494C4CA6
:1039000045442E2000005072696E74657220686113
:103910006C7465642E206B696C6C28292063616C63
:103920006C6564210A0098009A0011241FBECFEF35
:10393000D1E2DEBFCDBF00E00CBF18E0A0E0B2E0F6
:10394000EEE9F5E502E00BBF02C007900D92AA3147
:10395000B107D9F72DE1AAE1B8E001C01D92AE3F51
:10396000B207E1F71CE1C4E9DCE100E006C0219701
:103970000109802FFE010F94102AC339D10780E07E
:103980000807A9F70F9490120D94BE2A0C9400001A
:103990008091411990914219891B8F7069F480912F
:1039A0004F0D811109C081E02091CC0B3091CD0BDE
:1039B000232B19F480E0089581E008959091CB0BBA
:1039C000E92FF0E0E75DF54E80839F5F943040F48F
:1039D0009093CB0B80914F0D8F5F80934F0D089587
:1039E0001092CB0BF7CF282F90913709833021F419
:1039F00095FD0FC094FD0FC0892F90E0B0E0A0E0CE
:103A000004C0B695A795979587952A95D2F78170AA
:103A1000089581E0089580E00895082E000C990B28
:103A2000FC01E55DF94CE491EE2391F0F0E0EE0F3E
:103A3000FF1FEF5EF94CA591B4912C918F58994CD2
:103A4000FC018491282381E090E021F480E0089536
:103A500080E090E00895082E000C990BFC01E55DD4
:103A6000F94CE491F0E0EE0FFF1FE352FA4CA59100
:103A7000B4912C918F58994CFC018491822391E050
:103A800009F490E0892F0895CF92DF92EF92FF9290
:103A9000CF93DF93EC016A017B0127E137EB41ED26
:103AA00058EBCB01B6010F94362987FD23C023E0E4
:103AB00030E04BE953E4C701B6010F948820181693
:103AC000CCF0C880D980EA80FB8027E137EB41ED5C
:103AD00058EBC701B6010F94362987FD0BC0C1E032
:103AE00023E030E84DE953E4C701B6010F94882084
:103AF00018160CF4C0E08C2FDF91CF91FF90EF905F
:103B0000DF90CF9008958F929F92AF92BF92CF9205
:103B1000DF92EF92FF92C0900A0AD0900B0AE090D9
:103B20000C0AF0900D0A20E030E0A901C701B601AF
:103B30000F9488208823E1F1A701960160E070E0EE
:103B400080E89FE30F94EC276B017C0180900E0AC4
:103B500090900F0AA090100AB090110A20E030E077
:103B6000A901C501B4010F948820882329F1A5017A
:103B7000940160E070E080E89FE30F94EC27C0922E
:103B8000DC08D092DD08E092DE08F092DF08609356
:103B9000E0087093E1088093E2089093E308FF90B7
:103BA000EF90DF90CF90BF90AF909F908F9008954F
:103BB000C12CD12C7601CACF60E070E0CB01DFCF01
:103BC0008F929F92AF92BF92CF92DF92EF92FF922D
:103BD0000F931F93CF93DF93CDB7DEB760970FB6E8
:103BE000F894DEBF0FBECDBF8B0140E050E068E42B
:103BF00072E449875A876B877C8740E050E060EA2F
:103C000070E44D875E876F87788B813009F1823051
:103C100009F44CC08090441390904513A090461333
:103C2000B0904713F801C084D184E284F3849601F4
:103C3000A701B401C5010F94882087FD02C064016B
:103C40007501C601D70189839A83AB83BC8351C0B8
:103C5000BE01635F7F4FC80108960E945DCA88E07D
:103C6000F801DE01119601900D928A95E1F7AE01FF
:103C7000475F5F4FBE016B5F7F4FCE0101960E9491
:103C80003CCA0E94B8D760960FB6F894DEBF0FBE4C
:103C9000CDBFDF91CF911F910F91FF90EF90DF90FB
:103CA000CF90BF90AF909F908F900895F80120859E
:103CB00031854285538560914413709145138091FD
:103CC0004613909147130F9410276B017C0120E05D
:103CD00030E048EC53E40F94882087FD06C0C12CE7
:103CE000D12C88ECE82E83E4F82EC982DA82EB82AC
:103CF000FC82BE01635F7F4FCE010196AECFE0E64E
:103D0000FAE0108211821282138214820C94E9FC70
:103D10002F923F924F925F926F927F928F929F92DB
:103D2000AF92BF92CF92DF92EF92FF920F931F93C9
:103D3000CF93DF93D62FC72FFC0180809180A28084
:103D4000B380C501B40120E831E541E050E00F94B3
:103D5000B226C9016DE671E00F94E9296B017C017F
:103D6000C501B40120E13EE040E050E00F94B226EE
:103D7000CA01B90128E130E040E050E00F94B226DA
:103D8000362E272E062F172F8CE3482E512C612C10
:103D9000712CC501B401A30192010F94B226B62E75
:103DA000A72ECA01B901A30192010F94B226CB013B
:103DB000C114D10479F1AF92BF927F936F932F9288
:103DC0003F92FF92EF92DF92CF9286EF9DE19F9319
:103DD0008F93CF93DF930F9421208DB79EB70E96CC
:103DE0000FB6F8949EBF0FBE8DBF8D2F9C2FDF9115
:103DF000CF911F910F91FF90EF90DF90CF90BF90E8
:103E0000AF909F908F907F906F905F904F903F907A
:103E10002F900895E114F104C9F0AF92BF927F93FF
:103E20006F932F923F92FF92EF9286EE9DE19F93C8
:103E30008F93CF93DF930F942120EDB7FEB73C967D
:103E40000FB6F894FEBF0FBEEDBFCFCF012BB9F078
:103E5000AF92BF927F936F932F923F928AED9DE135
:103E60009F938F93CF93DF930F9421208DB79EB7AD
:103E70000A960FB6F8949EBF0FBE8DBFB6CF892BA2
:103E8000A9F0AF92BF927F936F9382ED9DE19F93D4
:103E90008F93CF93DF930F942120EDB7FEB7389621
:103EA0000FB6F894FEBF0FBEEDBF9FCFAF92BF928B
:103EB0008EEC9DE19F938F93CF93DF930F942120FE
:103EC0000F900F900F900F900F900F908ECF4F92FA
:103ED0005F926F927F928F929F92AF92BF92CF929A
:103EE000DF92EF92FF920F931F93CF93DF9300D057
:103EF0001F92CDB7DEB72B013C0184E0489F6001E3
:103F00001124F601E45CFC4E80809180A280B38095
:103F10008091300281115BC020E030E04AE754E438
:103F2000C501B4010F940F277B018C0120E030E024
:103F30004AE754E4C501B4010F9410274B015C011A
:103F40009701A801B201C3010F94882087FD0CC01E
:103F50009401A501B201C3010F94362972018301B6
:103F6000181614F474018501F601E45CFC4EC701D7
:103F7000D80180839183A283B383F601E256FD4F7B
:103F800020E030E040E752E46081718182819381DA
:103F90000F94EC2769837A838B839C83CE010196EF
:103FA0000E9463C90F900F900F900F90DF91CF91F7
:103FB0001F910F91FF90EF90DF90CF90BF90AF9047
:103FC0009F908F907F906F905F904F9008954130B9
:103FD00099F0423011F1E0901802F090190200912E
:103FE0001A0210911B028090240290902502A0904A
:103FF0002602B0902702A4CFE0901C02F0901D0290
:1040000000911E0210911F028090280290902902B8
:10401000A0902A02B0902B0293CFE0902002F09063
:104020002102009122021091230280902C02909094
:104030002D02A0902E02B0902F0282CFEF92FF921D
:104040000F931F93CF93DF93CDB7DEB78C01EDB6FF
:10405000FEB60F94D71F01962DB73EB7281B390B1C
:104060000FB6F8943EBF0FBE2DBF8DB79EB7019619
:10407000B8010F94D01F0E94C2F70FB6F894FEBE8D
:104080000FBEEDBEDF91CF911F910F91FF90EF908A
:1040900008958C38910514F08CE890E090930E14FC
:1040A00080930D140C9452AAFF920F931F93CF93F9
:1040B000DF931F92CDB7DEB7F82E01E615E041E0A1
:1040C00050E0B801CE0101960F94BC1F89818F1179
:1040D00008C081E00F90DF91CF911F910F91FF9069
:1040E00008950F5F1F4F85E00A37180741F780E0FA
:1040F000F1CF63E00C943FF82F923F924F925F9282
:104100006F927F928F929F92AF92BF92CF92DF92E7
:10411000EF92FF920F931F93CF93DF93CDB7DEB74C
:1041200060970FB6F894DEBF0FBECDBF8B876C874C
:10413000042F122F282F30E03E872D87462F50E086
:104140005A87498785E0982E929EC001939E900DD4
:104150001124988B8F87FA01E80FF91FEE0FFF1FCC
:10416000EE0FFF1FEF55FC4E6081718182819381BC
:104170009B01AC010F94BE29882309F445C14B85EE
:10418000400F6C85610F949EC0011124E985FA856A
:10419000E80FF91FEE0FFF1FEE0FFF1FEF55FC4E4C
:1041A000C080D180E280F380040F909EA001112492
:1041B000E985FA85E40FF51FEE0FFF1FEE0FFF1FD5
:1041C000EF55FC4E0081918082807380262F30E075
:1041D000EF85F889E20FF31FEE0FFF1FEE0FFF1FB1
:1041E000EF55FC4E20807181798372817A837381CF
:1041F0007B83610F70E0EF85F889E60FF71FEE0F04
:10420000FF1FEE0FFF1FEF55FC4EF88BEF87F0817D
:10421000FC83EF85F889F181FD83EF85F889F281D0
:10422000FE83EF85F889F381FF83FC01E20FF31F22
:10423000EE0FFF1FEE0FFF1FEF55FC4E208128876A
:10424000A180B2806380FA01E60FF71FEE0FFF1F17
:10425000EE0FFF1FEF55FC4E4080518032801381DE
:10426000202F392D482D572D602F792D882D972DF2
:104270000F94BE29882321F000E0912C812C712C11
:104280009601A701B601C7010F94BE29882321F02A
:10429000C02ED92CE82CF72C2C813D814E815F81DA
:1042A0006C817D818E819F810F94BE29882321F0AE
:1042B0001C821D821E821F82222D39814A815B81D0
:1042C000622D79818A819B810F94BE29882339F0E0
:1042D0002C803D8139834E814A835F815B839201CB
:1042E000432D512FB201832D912F0F94BE29882386
:1042F00021F0412C512C312C10E028853A2D4B2DEA
:10430000562D68857A2D8B2D962D0F94BE298823E6
:1043100021F04886A52CB32C612E85E02D853E85A5
:10432000829FF001839FF00D112449855A85E40F87
:10433000F51FEE0FFF1FEE0FFF1FEF55FC4EFA8724
:10434000E9879601A701B601C7010F941027202F16
:10435000392D482D572D0F940F276B017C01222DED
:1043600039814A815B81622D79818A819B810F9499
:1043700010272C813D814E815F810F940F279B0177
:10438000AC01C701B6010F9410276B017C01288591
:104390003A2D4B2D562D68857A2D8B2D962D0F9409
:1043A00010279201432D512F0F940F279B01AC0131
:1043B000C701B6010F94102720E030E040E450E43C
:1043C0000F94EC27E985FA85608371838283938358
:1043D0006C858B8560960FB6F894DEBF0FBECDBF9F
:1043E000DF91CF911F910F91FF90EF90DF90CF90D1
:1043F000BF90AF909F908F907F906F905F904F9005
:104400003F902F900C944FE760960FB6F894DEBF64
:104410000FBECDBFDF91CF911F910F91FF90EF9015
:10442000DF90CF90BF90AF909F908F907F906F90D4
:104430005F904F903F902F900895CF92DF92EF9230
:10444000FF920F931F93CF93DF936B017A01EC01DF
:10445000C45DD74F28813CE0389F8001399F100D03
:10446000112427FF24C0FB011182108288818F5FF5
:10447000888388819801280F311D87FD3A95C901ED
:1044800020913A19F6012817190629F024F088819D
:104490008C300CF43CC080819181049680349C491E
:1044A00008F475C0F60180819181049672C08881FC
:1044B0009801280F311D87FD3A95C90120913A19BD
:1044C0002817190699F294F28881A801480F511D06
:1044D00087FD5A95FA01EE0FFF1FE40FF51FE25317
:1044E000F74E808187FFC2CF8881F801E80FF11D68
:1044F00087FDFA95CF01EE0FFF1FE80FF91FE2537A
:10450000F74E808160E08F770E9447FBAFCF8081BC
:1045100091812881A801420F511D27FD5A959A01CA
:10452000FA01EE0FFF1FE20FF31FE253F74E218156
:104530003281820F931FF7019183808388819801D4
:10454000280F311D87FD3A95F901EE0FFF1FE20F8D
:10455000F31FE253F74E808187FF20C08881080F48
:10456000111D87FD1A95F801EE0FFF1FE00FF11FD7
:10457000E253F74E808161E08F77DF91CF911F91F9
:104580000F91FF90EF90DF90CF900C9447FB80E469
:104590009CE9F701918380838FEF8883DF91CF912E
:1045A0001F910F91FF90EF90DF90CF900895809131
:1045B000210990912209009731F04AE050E070E023
:1045C00060E00D94B41E60E070E0CB010895CF92DE
:1045D000DF92EF92FF926B017C01463011F5109251
:1045E0005B0A10925C0A10925D0A10925E0A1092A9
:1045F0005F0A0E9452AA20E030E0A901C701B6017B
:104600000F94882087FF1BC0C12CD12C7601C701D5
:10461000B6010F944229CB01FF90EF90DF90CF902D
:1046200038CD6DDB20E030E0A901C701B6010F9461
:10463000882087FF15C0C12CD12C76011BC020E03B
:1046400030E04CE053E4C701B6010F943629181648
:10465000F4F6C12CD12C9CE0E92E93E4F92ED7CFAF
:1046600020E030E046E953E4C701B6010F94362953
:1046700018165CF0C701B6010F944229CB01FF90D8
:10468000EF90DF90CF900C9473BFC12CD12C86E9B2
:10469000E82E83E4F82EEECF809121099091220933
:1046A000009731F04AE050E070E060E00D94871D23
:1046B00060E070E0CB010895EFDF97FD0AC0ECDF0A
:1046C0006F3F71058105910509F02CF4E5DF862F18
:1046D000089580E008958FEF0895809121099091C9
:1046E0002209892B39F0E8DF91E0811101C090E0C7
:1046F000892F089591E0FCCFCFDFCB0108952F9251
:104700003F924F925F926F927F928F929F92AF9261
:10471000BF92CF92DF92EF92FF920F931F93CF93AE
:10472000DF9300D0CDB7DEB780903C1390903D135F
:10473000A0903E13B0903F1340904013509041130F
:104740006090421370904313C0904413D09045136F
:10475000E0904613F09047130E9483BF0E9440C22E
:104760000BE212E288E192E09B838A838FE1282E9C
:1047700082E2382E198289810E943AC5F80185911A
:104780009591A591B491EA81FB8181939193A19335
:10479000B193FB83EA83F10185919591A591B49141
:1047A000EA81FB8180879187A287B387F981FF5FC8
:1047B000F9830C5F1F4F84E0280E311CF330D9F6CB
:1047C0006091060A7091070A8091080A9091090A7F
:1047D0000E944DE898D90E94D1BFA5019401609133
:1047E0003C1370913D1380913E1390913F130F94B1
:1047F000882081111CC0A301920160914013709127
:10480000411380914213909143130F94882081119A
:104810000EC020914413309145134091461350919E
:104820004713C701B6010F9488208823B9F00F9071
:104830000F900F90DF91CF911F910F91FF90EF900C
:10484000DF90CF90BF90AF909F908F907F906F90B0
:104850005F904F903F902F900C94B8D70F900F908F
:104860000F90DF91CF911F910F91FF90EF90DF900C
:10487000CF90BF90AF909F908F907F906F905F9000
:104880004F903F902F9008950F931F938091490A66
:10489000813019F50E94DDFC00913B0A10913C0A21
:1048A00020913D0A30913E0A601B710B820B930BE5
:1048B00028EE33E040E050E00F94B22660913F0ACA
:1048C0007091400A8091410A9091420A620F731FD1
:1048D000841F951F1F910F9108956091450A709153
:1048E000460A8091470A9091480AD6CF1092490A09
:1048F00010923B0A10923C0A10923D0A10923E0A16
:104900001092450A1092460A1092470A1092480ADD
:1049100010923F0A1092400A1092410A1092420AE5
:104920000895CF92DF92EF92FF92CF93DF936B01C6
:104930007C01C42F20E030E0A9010F94882020E002
:1049400030E0A90187FD14C020E030E048EC52E4DB
:10495000C701B6010F94362924E630E040E050E06C
:10496000181634F0C701B6010F9454289B01AC010E
:10497000C230A0F4D0E0CB55D24FAFEFB0E00F94EF
:10498000F02624E630E040E050E00F94D4262F3F9C
:10499000310519F010F02FEF30E02883DF91CF912F
:1049A000FF90EF90DF90CF9008958091090180FDF6
:1049B00006C08091371A83FB882780F9089580E02C
:1049C000089590919517977081E0973009F080E0F5
:1049D0000895AF92BF92CF92DF92EF92FF920F9322
:1049E0001F93CF93DF93EC01C12C80E3D82EE12CF1
:1049F000F12C02E8A12C90E2B92E15E00093C21927
:104A0000C092C319D092C419E092C519F092C61988
:104A1000B092CC19A092CB191093BF190E94A7E4B1
:104A20008FEFC81AD80AE80AF80A88E2C81680E3A5
:104A3000D806E104F10411F740E050E360E070E0D3
:104A4000CE01DF91CF911F910F91FF90EF90DF90FA
:104A5000CF90BF90AF900C9460E54F925F926F92B1
:104A60007F928F929F92AF92BF92CF92DF92EF92FE
:104A7000FF920F931F93CF931092DD091092DC09E0
:104A80002FE3209355091092540910925309109264
:104A900056091092570910925809109259099C0111
:104AA000F90190812F5F3F4F9032D1F39E34C9F4CA
:104AB000818190ED980F9A3020F08D3211F08B3279
:104AC00081F432969F012F5F3F4F808180538A305F
:104AD00008F462C09F012F5F3F4F8081803209F44C
:104AE0005DC0F0938C0DE0938B0D8F010F5F1F4F16
:104AF000C0816AE270E0C8010F94542A009731F037
:104B0000FC01319780818032E1F31182CD3429F0AC
:104B10000CF046C0C73409F049C0F80180810F5F2E
:104B20001F4F8032D1F380538A3008F03FC0C093CA
:104B3000550990E080E0AAE0AF014F5F5F4F208110
:104B4000022E000C330B20533109A89FB001A99FFE
:104B5000700D1124C901860F971FFA01208120537F
:104B60002A3050F39093540980935309DF01319612
:104B70002C912032D9F3CD3499F58E31910539F04D
:104B80002CF58731910519F08C31910549F5B093D9
:104B9000DD09A093DC090AC0F90194CFF9019ACF8D
:104BA000CF3409F4BACFC43509F4B7CFCF911F91F0
:104BB0000F91FF90EF90DF90CF90BF90AF909F90BC
:104BC0008F907F906F905F904F90089585379105FB
:104BD0003CF087379105DCF2803A23E09207B9F286
:104BE00010918B0DC12CD12C760150E040E0812C2E
:104BF000912C5401839401C0DF01FD0131962C9169
:104C0000222309F481C02132E1F4CD34D1F4803281
:104C10009105B9F4C0925609D0925709E09258090B
:104C2000F0925909F093DD09E093DC0963E270E04A
:104C3000CF010F94542A009709F4B8CFDC011C92DD
:104C4000B5CF21542A3108F05AC0DF013D913032EE
:104C500091F060ED630F6A30E8F03E3271F431811B
:104C600030533A30B8F04115510519F4AF014150B5
:104C7000510930E013C0FD01E8CF3D3211F03B3265
:104C800091F7318160ED630F6A3020F03E3259F7C1
:104C90003281E6CF3E2F311B309759F3622F70E0FF
:104CA0002401350104C0440C551C661C771C2A9550
:104CB000D2F7C428D528E628F728675C764FDB01B1
:104CC0003C93208121542A3108F496CFDF01FD0165
:104CD0002D91222309F490CF30ED320F3A30B8F302
:104CE00033ED320F323098F32B3289F39F012F5F6F
:104CF0003F4F6081603209F07FCFF901F7CF411556
:104D00005105F9F6AD01DDCF5093DD094093DC0983
:104D1000C0925609D0925709E0925809F092590969
:104D200045CF4F925F926F927F928F929F92AF92F8
:104D3000BF92CF92DF92EF92FF92CF93DF9300D09A
:104D400000D01F921F92CDB7DEB79E838D83DB010B
:104D5000CD90DD90ED90FC908091760D9091770D47
:104D6000A091780DB091790D89839A83AB83BC8330
:104D70009C01AD01C701B6010F940F272B013C0127
:104D8000AD81BE818D909D90AD90BC908091720D53
:104D90009091730DA091740DB091750D8D839E83CC
:104DA000AF83B88727E137EB41ED58EBC301B20180
:104DB0000F94362987FDD2C023E030E04BE953E45D
:104DC000C301B2010F94882018160CF4C7C02D81BE
:104DD0003E814F815885C501B4010F940F272B01E7
:104DE0003C0127E137EB41ED58EB0F94362987FD65
:104DF000B5C023E030E84DE953E4C301B2010F949C
:104E0000882018160CF4AAC020E030E0A9016D81BA
:104E10007E818F8198850F9410272B013C0120E023
:104E200030E040E251E40F94882087FF06C0412C17
:104E3000512C30E2632E31E4732E27E137EB41ED44
:104E400058E3C301B2010F940F279B01AC01C501C8
:104E5000B4010F94362987FD81C020E030E84DE988
:104E600053E46D817E818F8198850F9410272B01EB
:104E70003C0120E030E848E953E40F943629181645
:104E80003CF4412C20E8522E28E9622E23E4722EB5
:104E900027E137EB41ED58E3C301B2010F9410272E
:104EA0009B01AC01C501B4010F94882018160CF4C5
:104EB00055C020E030E0A90169817A818B819C8115
:104EC0000F9410274B015C0120E030E040E751E4F3
:104ED0000F94882087FF06C0812C912C90E7A92E83
:104EE00091E4B92E27E137EB41ED58E3C501B40158
:104EF0000F940F279B01AC01C701B6010F9436290F
:104F000087FD2CC020E030E04BE953E469817A81D1
:104F10008B819C810F9410274B015C0120E030E0D5
:104F200041E953E40F943629181634F4812C912C5E
:104F300081E9A82E83E4B82E27E137EB41ED58E351
:104F4000C501B4010F9410279B01AC0191E0998336
:104F5000C701B6010F94882018160CF419828981B4
:104F600028960FB6F894DEBF0FBECDBFDF91CF916C
:104F7000FF90EF90DF90CF90BF90AF909F908F9079
:104F80007F906F905F904F9008952F923F924F9235
:104F90005F926F927F928F929F92AF92BF92CF92C9
:104FA000DF92EF92FF921F93CF93DF9300D01F9277
:104FB000CDB7DEB74A011901FC0140805180628003
:104FC0007380FB01C080D180E280F38020913C138C
:104FD00030913D1340913E1350913F13C301B201F4
:104FE0000F94882081110EC011E0A70196016091F5
:104FF00040137091411380914213909143130F9489
:105000008820811110E080E1ECE3F3E1A5E5BDE04B
:1050100001900D928A95E1F7F40180809180A28041
:10502000B38020910A0230910B0240910C02509102
:105030000D02C501B4010F948820882379F1809274
:105040005D0D90925E0DA0925F0DB092600D80920A
:105050000A0290920B02A0920C02B0920D0220E084
:1050600030E040E05FE3609185137091861380919A
:105070008713909188130F94ED2069837A838B8333
:105080009C83CE0101960E94FDC880E1ECE3F3E130
:10509000A5E5BDE001900D928A95E1F74092550D8E
:1050A0005092560D6092570D7092580DC092590D46
:1050B000D0925A0DE0925B0DF0925C0DF1012081CF
:1050C0003181428153816091610D7091620D8091B7
:1050D000630D9091640D0F9410276093610D709390
:1050E000620D8093630D9093640D60E070E080EA40
:1050F00091E4112371F02AEF3EE74AE25FE3609109
:10510000891370918A1380918B1390918C130F9453
:10511000ED2069837A838B839C83CE0101960E9464
:10512000FDC880E1ECE3F3E1A5E5BDE001900D925F
:105130008A95E1F70F900F900F900F90DF91CF912C
:105140001F91FF90EF90DF90CF90BF90AF909F9016
:105150008F907F906F905F904F903F902F90089529
:105160000F931F93CF93DF9300D000D01F921F9215
:10517000CDB7DEB78C010E9466FA1D821E821F82A7
:10518000188620E030E040E05FE3609144137091C6
:10519000451380914613909147130F94102769830C
:1051A0007A838B839C839E012B5F3F4FAE014F5FC1
:1051B0005F4F60E473E18CE393E1E7DE1D821E82C2
:1051C0001F82188620E030E040E05FE3F801608550
:1051D0007185828593850F94102769837A838B83E9
:1051E0009C83B8016C5F7F4F9E012B5F3F4FAE01E8
:1051F0004F5F5F4FC801C9DE28960FB6F894DEBF37
:105200000FBECDBFDF91CF911F910F9108952F92C7
:105210003F924F925F926F927F928F929F92AF9246
:10522000BF92CF92DF92EF92FF920F931F93CF9393
:10523000DF93CDB7DEB7A0970FB6F894DEBF0FBEF1
:10524000CDBF8C011B0140903C1350903D136090EA
:105250003E1370903F138090401390904113A090A4
:105260004213B0904313DC018D919D910D90BC9140
:10527000A02D8D879E87AF87B88B9C01AD01C301A0
:10528000B2010F940F276B017C01D80114968D9108
:105290009D910D90BC91A02D898B9A8BAB8BBC8B73
:1052A0009C01AD01C501B4010F940F276D8B7E8B5E
:1052B0008F8B988FD1018D919D910D90BC91A02DD8
:1052C0008D839E83AF83B8879C01AD01C301B2017A
:1052D0000F940F27698F7A8F8B8F9C8FD101149633
:1052E0008D919D910D90BC91A02D89879A87AB8758
:1052F000BC879C01AD01C501B4010F940F276D8FD0
:105300007E8F8F8F98A3A7019601C701B6010F94D6
:10531000ED206B017C012D893E894F89588DCA0192
:10532000B9010F94ED209B01AC01C701B6010F94A8
:1053300010274B015C012D853E854F8558896D8175
:105340007E818F8198850F940F272B013C0129893D
:105350003A894B895C8969857A858B859C850F9410
:105360000F276B017C01A3019201C301B2010F94CD
:10537000ED202B013C01A7019601C701B6010F9456
:10538000ED209B01AC01C301B2010F9410270F94D3
:105390007C296B017C01298D3A8D4B8D5C8DCA0176
:1053A000B9010F94ED202B013C012D8D3E8D4F8DC9
:1053B00058A1CA01B9010F94ED209B01AC01C301B2
:1053C000B2010F9410279B01AC01C501B4010F94E9
:1053D000362918169CF520E030E0A901C701B60176
:1053E0000F94362987FF27C0C701B601905820E0E7
:1053F00030E040EA50E40F9436291816FCF4B80166
:10540000C10105DFA0960FB6F894DEBF0FBECDBF79
:10541000DF91CF911F910F91FF90EF90DF90CF9090
:10542000BF90AF909F908F907F906F905F904F90C4
:105430003F902F900895C701B601D9CF20E030E00A
:1054400040E050E4C501B4010F943629181614F455
:10545000C80186DE19821A821B821C82A801485F5D
:105460005F4FB8016C5F7F4F9E012F5F3F4FC801B8
:105470008CDD2DEC3CEC4CEC5CE3C701B6010F94E9
:10548000ED209B01AC0160911D0970911E09809176
:105490001F09909120090F94ED2069837A838B83F3
:1054A0009C838091650D81110E9492FAA101485F51
:1054B0005F4FB1016C5F7F4F9E012F5F3F4FC10176
:1054C00064DDA0CF0F931F93CF938091210990911A
:1054D00022090097E9F0FC018F01C1912C2F2F7D4B
:1054E00081F0C53411F0C536B9F7F801108270E0CB
:1054F00060E00F94311CF801C083CF911F910F9190
:10550000089570E060E0CF911F910F910D94311CD0
:1055100060E070E0CB01F1CF2FEB280F2A3108F0CB
:1055200042C0E22FF0E08091560990915709A09176
:105530005809B091590904C0B695A79597958795D4
:105540002A95D2F780FD02C081700895E75CF64F7E
:10555000E081EE2329F180918B0D90918C0DE80F65
:10556000F92FF11D808190ED980F9A3030F08E3236
:1055700051F4818180538A3098F4F0932209E093AA
:10558000210981E008958D3211F08B3249F4818137
:1055900090ED980F9A3088F38E3211F48281EACF21
:1055A000F0E0E0E0EACF80E00895B6DF882341F044
:1055B00081E02091210930912209232B09F480E018
:1055C0000895CF92DF92EF92FF926A017B01EDDFA7
:1055D000882329F0FF90EF90DF90CF9073CFC70121
:1055E000B601FF90EF90DF90CF9008954F925F92B9
:1055F0006F927F92AF92BF92CF92DF92EF92FF9223
:105600000F931F93CF93DF938AE8A82E83E0B82EE1
:105610000CE313E1C5E5DDE096E6C92E9DE0D92E49
:10562000F12CF50181915F01C0DF882339F04ADF59
:105630002B013C0180913A13882351F0F8018081BD
:105640009181A281B38188839983AA83BB8313C08C
:105650008F2D0E94F31C882309F494C0F801208147
:10566000318142815381C301B2010F9410276883B5
:1056700079838A839B83F3940C5F1F4F2496F4E015
:10568000CF0ED11C83E0F812CCCF85E48EDF8823C7
:1056900009F482C017DF6B017C0183E00E94F31CD8
:1056A000882371F0209148133091491340914A1397
:1056B00050914B13C701B6010F9410276B017C0169
:1056C000C092610DD092620DE092630DF092640D74
:1056D00040E050E0BA0186E474DF20E030E0A90148
:1056E0000F94362918167CF4EDDE20E030E040E718
:1056F00052E40F94EC2760936802709369028093E0
:105700006A0290936B0280913B1383FD2CC08091C1
:105710003A13811128C08091AA0B882321F120918E
:1057200048133091491340914A1350914B136091A3
:10573000610D7091620D8091630D9091640D0F94D5
:105740000F272091B70B3091B80B4091B90B5091B6
:10575000BA0B0F9410276093B70B7093B80B80931C
:10576000B90B9093BA0BDF91CF911F910F91FF90DE
:10577000EF90DF90CF90BF90AF907F906F905F9051
:105780004F900895F6012081318142815381C301F8
:10579000B2010F940F276BCF80914813909149135A
:1057A000A0914A13B0914B138093610D9093620DB9
:1057B000A093630DB093640D8BCFCF93DF93EB0178
:1057C000F4DE882319F00E944C23EB01CE01DF9117
:1057D000CF910895CF93DF93EB01E7DE882321F08B
:1057E000DF91CF910C947C23CE01DF91CF9108956E
:1057F000CF93C62FDADE882319F0CF910C945C2367
:105800008C2FCF910895CF93DF93C82FD62FCDDE65
:10581000882321F0DF91CF910C946D238C2F7CDEB7
:10582000811101C08D2FDF91CF9108954F925F922A
:105830006F927F928F929F92AF92BF92CF92DF92A0
:10584000EF92FF920F931F93CF93DF93EC01209180
:10585000FD093091FE094091FF095091000A6881CD
:1058600079818A819B810F940F276B017C012091A4
:10587000010A3091020A4091030A5091040A6C8196
:105880007D818E819F810F940F274B015C01A701C1
:10589000960160910202709103028091040290913E
:1058A00005020F948820882309F45AC0C09202028E
:1058B000D0920302E0920402F09205022091DC08EB
:1058C0003091DD084091DE085091DF08C701B60134
:1058D0000F94ED202B013C010F9485286B017C0176
:1058E00020E030E0A9010F94882087FD7AC020E0F5
:1058F00030E040E850E4C701B6010F94362918168D
:1059000034F4C12CD12CC0E8EC2EC0E4FC2EA7014D
:105910009601C301B2010F940F272B013C0120E037
:1059200030E0A9010F94882087FD5FC04092D40821
:105930005092D5086092D6087092D708C701B60178
:105940000F9454286093D208062E000C770B6F5FDB
:105950007F4F6430710514F064E070E06093D0080C
:10596000D09100021091D208A50194016091060225
:105970007091070280910802909109020F9488208B
:1059800081113CC0D11394C02091B8083091B9085E
:105990004091BA085091BB086091D4087091D50825
:1059A0008091D6089091D7080F94ED202091BC08E3
:1059B0003091BD084091BE085091BF080F94102748
:1059C000DF91CF911F910F91FF90EF90DF90CF90DB
:1059D000BF90AF909F908F907F906F905F904F900F
:1059E0000895C12CD12C760192CF1092D408109238
:1059F000D5081092D6081092D708A0CF8092060240
:105A000090920702A0920802B09209022091E00849
:105A10003091E1084091E2085091E308C501B401DA
:105A20000F94ED204B015C010F9485286B017C01E4
:105A300020E030E0A9010F94882087FDFDC020E020
:105A400030E040E850E4C701B6010F94362918163B
:105A500034F4C12CD12CB0E8EB2EB0E4FB2EA7011E
:105A60009601C501B4010F940F274B015C0120E0A2
:105A700030E0A9010F94882087FDE2C08092D80809
:105A80009092D908A092DA08B092DB08C701B6015B
:105A90000F9454286093D308062E000C770B6F5F89
:105AA0007F4F6430710514F064E070E06093D108BA
:105AB000C091D308D11305C0809101028C1709F45D
:105AC00070C08091D2089091D30890930102809386
:105AD00000020C2E000CDD0B25E01203C001112486
